:020000040800F2
:1000000000C00020751A0008991900089F190008FF
:10001000A5190008AB190008B1190008000000007C
:10002000000000000000000000000000B7190008F8
:10003000C319000800000000CF190008DB190008F0
:10004000BD1A0008BD1A0008BD1A0008BD1A000834
:10005000BD1A0008BD1A0008BD1A0008BD1A000824
:10006000BD1A0008BD1A0008BD1A0008BD1A000814
:10007000BD1A0008BD1A0008BD1A0008BD1A000804
:10008000BD1A0008BD1A0008BD1A0008BD1A0008F4
:10009000BD1A0008BD1A0008BD1A0008BD1A0008E4
:1000A000BD1A0008BD1A0008BD1A0008BD1A0008D4
:1000B000E9190008BD1A0008BD1A0008BD1A000899
:1000C000BD1A0008BD1A0008BD1A0008BD1A0008B4
:1000D000BD1A0008BD1A0008BD1A0008BD1A0008A4
:1000E000BD1A0008BD1A0008BD1A0008BD1A000894
:1000F000BD1A0008BD1A0008BD1A0008BD1A000884
:10010000BD1A0008BD1A0008BD1A0008BD1A000873
:10011000BD1A0008BD1A0008BD1A0008BD1A000863
:10012000BD1A0008BD1A0008BD1A0008BD1A000853
:1001300000000000000000000000000000000000BF
:1001400000000000000000000000000000000000AF
:10015000000000000000000000000000000000009F
:10016000000000000000000000000000000000008F
:10017000000000000000000000000000000000007F
:10018000000000000000000000000000000000006F
:10019000000000000000000000000000000000005F
:1001A000000000000000000000000000000000004F
:1001B000000000000000000000000000000000003F
:1001C000000000000000000000000000000000002F
:1001D000000000000000000000000000000000001F
:0401E0005FF8E0F1F3
:1001E40010B5054C237833B9044B13B10448AFF36D
:1001F40000800123237010BD5C000020000000007B
:100204002069000808B5034B1BB103490348AFF349
:10021400008008BD00000000600000202069000884
:10022400034613F8012B002AFBD1181A0138704732
:1002340080B500AF204B214A1A601F4B10225A6030
:100244001D4B00229A601C4B0022DA601A4B0022DC
:100254001A61194B00225A61174B00221A76164B69
:1002640000225A76144B00229A76134B0022DA7637
:10027400114B00221A77104B00225A770E4801F0D6
:10028400A3FC0346002B01D0012313E000F018F86F
:10029400094801F05DFE0346002B01D0012309E06B
:1002A4000221054801F098FE0346002B01D00123EA
:1002B40000E00023184680BD780000200064004060
:1002C40080B58AB000AF00237B610023BB610123AA
:1002D400FB6100233B6000237B600023BB600023A1
:1002E400FB6000233B6101233B620E237B623B46A0
:1002F4001946064801F063FD0346002B01D000F0C7
:1003040041FF00BF2837BD4680BD00BF78000020F4
:1003140080B582B000AF3B4600221A605A60184B89
:10032400184A1A60164801F08AFF0346002B01D0D0
:10033400012320E000233B6000237B603B46002236
:1003440019460F4801F0F3FF0346002B01D00123A7
:1003540011E03B4610221946094801F0E8FF034624
:10036400002B01D0012306E0002000F00DF810203E
:1003740000F00AF8002318460837BD4680BD00BFC8
:10038400A00000200074004080B582B000AF786007
:100394007968044801F075FF034618460837BD46DE
:1003A40080BD00BFA000002080B58AB000AF07F177
:1003B400180300221A605A609A60DA60744B9B69D1
:1003C400734A43F040039361714B9B6903F040030C
:1003D4007B617B696E4B9B696D4A43F010039361AB
:1003E4006B4B9B6903F010033B613B69684B9B6952
:1003F400674A43F004039361654B9B6903F004036C
:10040400FB60FB68624B9B69614A43F0080393619C
:100414005F4B9B6903F00803BB60BB685C4B9B6943
:100424005B4A43F020039361594B9B6903F020031B
:100434007B607B68564B9B69554A43F0010393618B
:10044400534B9B6903F001033B603B6801224FF46B
:100454004051504802F06FF900224FF440414D489A
:1004640002F069F900224FF440714B4802F063F93D
:1004740000224FF44041494802F05DF90122032172
:10048400474802F058F901228021464802F053F906
:10049400012201213F4802F04EF900222F213E485B
:1004A40002F049F900224FF492613C4802F043F90A
:1004B40000224FF449713A4802F03DF90023FB61F0
:1004C40000233B6240F6FE73BB6107F11803194633
:1004D400304801F085FF4E23BB6107F1180319462C
:1004E400304801F07DFF5023BB6107F11803194622
:1004F400294801F075FF41F60803BB6107F11803B1
:100504001946264801F06CFF0123FB6100233B627E
:1005140002237B6240F22F33BB6107F118031946B3
:100524001D4801F05DFF40F22733BB6107F118035A
:1005340019461B4801F054FF4FF20103BB6107F158
:1005440018031946134801F04BFF4CF29043BB616A
:1005540007F118031946114801F042FF8023BB61DB
:1005640007F1180319460F4801F03AFF4FF480735E
:10057400BB610223FB6102237B6207F11803194666
:10058400084801F02DFF00BF2837BD4680BD00BFDD
:100594000010024000180140001001400014014006
:1005A400000C01400008014080B500AF134B144A11
:1005B4001A60124B134A5A60104B00229A600F4B78
:1005C4000022DA600D4B4FF480421A610B4B00227B
:1005D4005A610A4B00229A61084B0022DA61074BE8
:1005E40000221A62054802F0D7F80346002B01D016
:1005F400012300E00023184680BD00BFB4000020A2
:1006040000540040A086010080B500AF134B144A8B
:100614001A60124B134A5A60104B00229A600F4B17
:100624000022DA600D4B4FF480421A610B4B00221A
:100634005A610A4B00229A61084B0022DA61074B87
:1006440000221A62054802F0A7F80346002B01D0E5
:10065400012300E00023184680BD00BF08010020EC
:1006640000580040A086010080B584B000AFF86057
:10067400B9607A607B80FB68BA681A60FB687A6844
:100684005A60FB687A881A81F86800F014F800BF91
:100694001037BD4680BD80B582B000AF78607B68FE
:1006A40058687B681B890122194602F044F800BF90
:1006B4000837BD4680BD80B582B000AF78607B68E6
:1006C40058687B681B890022194602F034F800BF81
:1006D4000837BD4680BD80B586B000AFF860B9600C
:1006E4003B601346FB80FB68002B03D0FB681B6850
:1006F400002B01D1012318E0F868FFF7CCFFFB6859
:100704001868FA883B68B96805F027FA0346FB7550
:1007140000BFFB681B681B681B6803F04003402B89
:10072400F7D1F868FFF7C7FFFB7D18461837BD46B9
:1007340080BD000080B500AF0A4B0B4A1A60094B1C
:100744004FF0FF325A60074B00229A60054803F0CD
:1007540061FF0346002B01D0012300E0002318466B
:1007640080BD00BF5C0100200028004080B500AFC0
:10077400184B194A1A60174B4FF482725A60154B82
:1007840000229A60134B0022DA60124B00221A6195
:10079400104B00225A610F4B4FF480229A610D4B8B
:1007A4000022DA610B4B00221A620A4B00225A62C1
:1007B400084B00229A62074B0A22DA62054804F0C9
:1007C40032F80346002B01D0012300E00023184631
:1007D40080BD00BF700100200038004080B596B095
:1007E40000AF07F1300328220021184605F004FC6D
:1007F40007F11C0300221A605A609A60DA601A61D9
:100804003B1D00221A605A609A60DA601A615A61CC
:1008140009233B634FF480337B630023BB630123D1
:100824003B640123BB640223FB644FF480333B65C8
:100834004FF480137B6507F13003184603F014F975
:100844000346002B01D000F031F80F23FB61022393
:100854003B6200237B624FF48063BB620023FB6234
:1008640007F11C030121184603F080FB0346002B0B
:1008740001D000F01BF811237B604FF40073BB60C0
:100884004FF48003BB613B1D184603F035FD03465E
:10089400002B01D000F00AF800224FF08061002004
:1008A40003F04EFC00BF5837BD4680BD80B400AF96
:1008B40072B600BFFEE7000080B592B000AF07F14A
:1008C400400300221A605A6007F1240300221A60D0
:1008D4005A609A60DA601A615A619A613B1D20225B
:1008E4000021184605F088FB2E4B2F4A1A602D4B29
:1008F40000225A602B4B00229A602A4B4FF6FF725B
:10090400DA60284B00221A61264B00225A61254BDB
:1009140000229A61234804F0B9F80346002B01D061
:1009240000F030FC00233B6400237B6407F14003A8
:1009340019461C4804F0F2FF00237B620023BB62CB
:100944000023FB6200233B6300237B630023BB6320
:100954000023FB6307F1240308221946114804F01D
:10096400E7FA0346002B01D000F00CFC00237B6067
:100974000023BB600023FB6000233B6100237B61F9
:100984004FF40053BB6100233B623B1D19460548ED
:1009940005F030F8034800F015FE00BF4837BD46A7
:1009A40080BD00BFC8010020002C014080B586B086
:1009B40000AF07F1080300221A605A609A60DA60F7
:1009C4003B4600221A605A601B4B4FF080421A606B
:1009D400194B47225A60184B00229A60164B40F27A
:1009E400E732DA60144B00221A61134B00229A6139
:1009F400114803F09CFF0346002B01D000F0C2FB1A
:100A04004FF48053BB6007F1080319460A4804F009
:100A1400ADFB0346002B01D000F0B4FB00233B6088
:100A240000237B603B461946034804F077FF00BF70
:100A34001837BD4680BD00BF1002002080B58AB0C3
:100A440000AF07F1080300221A605A609A60DA6066
:100A54001A615A619A61284B284A1A60264B00226F
:100A64005A60254B00229A60234B40F60F62DA60ED
:100A7400214B00221A61204B80229A611E4804F007
:100A84005DF80346002B01D000F07CFB1C4B9B69F6
:100A94001B4A43F001039361194B9B6903F0010363
:100AA4007B607B68174B5B687B627B6A43F0E06327
:100AB4007B627B6A43F480537B62124A7B6A536095
:100AC4006023BB600023FB6000233B610023BB6108
:100AD40007F1080304221946074804F085FA03467F
:100AE400002B01D000F04EFB034800F06BFD00BF6B
:100AF4002837BD4680BD00BF5802002000080040D2
:100B0400001002400000014080B590B000AF07F132
:100B1400240300221A605A609A60DA601A615A61EA
:100B24009A613B1D20220021184605F065FA2C4BE2
:100B34002C4A1A602A4B00225A60294B00229A60E0
:100B4400274B40F60F62DA60254B00221A61244BD2
:100B540000225A61224B80229A61214803F0EEFF61
:100B64000346002B01D000F00DFB60237B620023C1
:100B7400BB620023FB6200233B6300237B630023EF
:100B8400BB630023FB6307F12403042219461448C2
:100B940004F02AFA0346002B01D000F0F3FA0023F4
:100BA4007B600023BB600023FB6000233B610023C8
:100BB4007B614FF40053BB614FF480433B623B1DA8
:100BC4001946074804F016FF0346002B01D000F035
:100BD400D9FA034800F0F6FC00BF4037BD4680BD9B
:100BE400A00200200034014080B485B000AFF8605A
:100BF400B9607A60BB68002B04D1FB681B687A6813
:100C04005A6313E0BB68042B04D1FB681A687B6841
:100C140093630BE0BB68082B04D1FB681A687B68FC
:100C2400D36303E0FB681A687B68136400BF14375E
:100C3400BD4680BC7047000080B483B000AF7860CC
:100C44007B681B68B3F1804F0ED10A4B1B680133DC
:100C5400084A1360074B1B68632B05D9054B002218
:100C64001A60054B01221A7000BF0C37BD4680BCC8
:100C7400704700BFEC020020E802002080B500AFFE
:100C8400114B124A1A60104B4FF4E1325A600E4B6A
:100C940000229A600C4B0022DA600B4B00221A618E
:100CA400094B0C225A61084B00229A61064B002220
:100CB400DA61054804F001FF0346002B01D000F07F
:100CC40061FA00BF80BD00BFF0020020003801407F
:100CD40080B500AF114B124A1A60104B4FF4E13249
:100CE4005A600E4B00229A600C4B0022DA600B4BC8
:100CF40000221A61094B0C225A61084B00229A61A6
:100D0400064B0022DA61054804F0D7FE0346002BA7
:100D140001D000F037FA00BF80BD00BF38030020C7
:100D24000044004080B500AF114B124A1A60104BCA
:100D34004FF416525A600E4B00229A600C4B00225C
:100D4400DA600B4B00221A61094B0C225A61084BE2
:100D540000229A61064B0022DA61054804F0ADFED8
:100D64000346002B01D000F00DFA00BF80BD00BF88
:100D7400800300200048004080B500AF114B124AA8
:100D84001A60104B4FF4E1325A600E4B00229A6005
:100D94000C4B0022DA600B4B00221A61094B0C2227
:100DA4005A61084B00229A61064B0022DA61054819
:100DB40004F083FE0346002B01D000F0E3F900BFEA
:100DC40080BD00BFC8030020004C004080B500AFC8
:100DD400114B124A1A60104B4FF4E1325A600E4B19
:100DE40000229A600C4B0022DA600B4B00221A613D
:100DF400094B0C225A61084B00229A61064B0022CF
:100E0400DA61054804F059FE0346002B01D000F0D6
:100E1400B9F900BF80BD00BF10040020005000409D
:100E240080B500AF0D4B0E4A1A600C4B08221A71A4
:100E34000A4B02229A71094B00229A72074B002234
:100E4400DA72064B00221A73044802F00AFD0346C4
:100E5400002B01D000F096F900BF80BD580400209B
:100E6400005C004080B598B004AF00F027FEFFF7A7
:100E7400B5FCFFF799FAFFF75DFCFFF749FAFFF7B6
:100E840093FBFFF7C1FBFFF771FCFFF715FDFFF7BD
:100E94008DFDFFF739FEFFF7F1FEFFF719FFFFF7AE
:100EA40041FFFFF769FFFFF791FFFFF7C1F9FFF774
:100EB400C5FDFFF7B5FF4FF480635C4A5C495D48AC
:100EC400FFF7D2FB01224FF400515B4801F033FCE1
:100ED40001224FF48051584801F02DFC0421574859
:100EE40003F07CFE0421564803F078FE544B1B6843
:100EF4005A6C534B1B6842F400425A6401224FF46B
:100F04000071504801F017FC642000F039FE00F035
:100F1400A9F84D4803F05AFD4C4B1B78DBB2012B6A
:100F24002BD14A4B00221A70494B1B78002B01D15C
:100F340000F098F8464B1B78002B0DD0454B1B78DE
:100F4400002B09D100F0F4F8424B01221A7000F092
:100F54000DFE0346404A13604FF43473FB64FA6C8D
:100F640004213648FFF740FEFA6C04213448FFF7A9
:100F74003BFE0121334801F0F6FB364B1B78012B75
:100F8400CAD102212C4801F0BFFB0346002B40D1FB
:100F9400642302930223019307F14803009310236F
:100FA400962252212D4801F035FE0346002B1CD118
:100FB40097F848301B021AB297F849301BB2134312
:100FC4001BB2A7F84A30B7F84A203B1D24491846FB
:100FD40004F0F2FF3B1D1846FFF722F903469AB2CC
:100FE400391D32231348FFF776FB012387F8473076
:100FF4000A2302930123019307F14703009310236B
:1010040086225221154801F00BFD124B00221A7062
:1010140082E700F0ABFD02460F4B1B68D31A962BF8
:101024007FF67AAF0B4B00221A7075E7001401406B
:1010340080030020300700200018014058020020DF
:10104400A0020020000C014010020020E802002051
:101054003C0700203D070020400700200801002035
:101064003869000880B596B004AF002387F846308D
:10107400642302930123019307F146030093102391
:1010840040F20F125221244801F0C4FD034687F8B0
:10109400473097F84730002B26D197F84630EA2B93
:1010A40022D10123FB706423029301230193FB1CCF
:1010B4000093102387225221174801F0B1FC034604
:1010C400002B0BD1154B01221A7097F846301A46A3
:1010D4003B1D1349184604F06FFF0DE03B1D1149F9
:1010E400184604F069FF07E097F8472097F8463060
:1010F400381D0D4904F060FF3B1D1846FFF790F8BA
:1011040003469AB2391D32230848FFF7E4FA00BFB8
:101114004837BD4680BD00BF080100203C070020C1
:101124004C690008706900089069000830070020C5
:1011340080B586B004AF0123FB70642302930123BE
:101144000193FB1C00931023872252210A4801F0CB
:1011540067FC0346002B0BD0084B7B607868FFF7D5
:101164005FF803469AB2322379680548FFF7B3FA69
:1011740000BF0837BD4680BD08010020C0690008D3
:101184003007002080B400AF72B600BFFEE7000055
:1011940080B485B000AF134B9B69124A43F001033E
:1011A4009361104B9B6903F00103BB60BB680D4B5B
:1011B400DB690C4A43F08053D3610A4BDB6903F0CB
:1011C40080537B607B68084B5B68FB60FB6823F0A3
:1011D400E063FB60044AFB68536000BF1437BD46FC
:1011E40080BC7047001002400000014080B58AB006
:1011F40000AF786007F1140300221A605A609A6005
:10120400DA607B681B68244A934241D1234BDB6933
:10121400224A43F00073D361204BDB6903F000736F
:101224003B613B691D4B9B691C4A43F0200393615E
:101234001A4B9B6903F02003FB60FB6801237B616D
:101244000023BB610023FB6107F114031946144812
:1012540001F0C6F802237B610223BB6103233B62D6
:1012640007F1140319460E4801F0BAF80D4B5B68F8
:101274007B627B6A23F4C0437B627B6A43F0E06356
:101284007B627B6A43F4C0437B62064A7B6A536099
:1012940000BF2837BD4680BD0064004000100240F6
:1012A400001401400000014080B588B000AF7860B0
:1012B40007F1100300221A605A609A60DA607B68B2
:1012C4001B68144A934221D1134BDB69124A43F041
:1012D4000053D361104BDB6903F00053FB60FB68E0
:1012E4000D4B9B690C4A43F0040393610A4B9B69C1
:1012F40003F00403BB60BB6830233B6103237B61C1
:1013040007F110031946054801F06AF800BF2037B9
:10131400BD4680BD0074004000100240000801403A
:1013240080B58AB000AF786007F1180300221A6014
:101334005A609A60DA607B681B682B4A934224D116
:101344002A4B9B69294A43F008039361274B9B6905
:1013540003F008037B617B69C023BB611223FB613B
:1013640003237B6207F118031946214801F038F87A
:101374001E4BDB691D4A43F40013D3611B4BDB692D
:1013840003F400133B613B6929E07B681B68194A3D
:10139400934224D1154B9B69144A43F0080393618B
:1013A400124B9B6903F00803FB60FB684FF4406336
:1013B400BB611223FB6103237B6207F11803194607
:1013C4000B4801F00DF8094BDB69084A43F480032C
:1013D400D361064BDB6903F48003BB60BB6800BFC9
:1013E4002837BD4680BD00BF0054004000100240B5
:1013F400000C01400058004080B584B000AF786014
:101404007B681B680B4A934210D102F021FB0A4B04
:10141400DB69094A43F00063D361074BDB6903F0DE
:101424000063FB60FB68054B01221A6000BF1037A4
:10143400BD4680BD00280040001002403C044242EA
:1014440080B588B000AF786007F1100300221A60FD
:101454005A609A60DA607B681B681C4A934231D1F7
:101464001B4BDB691A4A43F48043D361184BDB6995
:1014740003F48043FB60FB68154B9B69144A43F0FB
:1014840008039361124B9B6903F00803BB60BB68BC
:101494004FF430433B6102237B610323FB6107F17B
:1014A400100319460B4800F09BFF4FF480433B6147
:1014B40000237B610023BB6107F110031946054833
:1014C40000F08EFF00BF2037BD4680BD00380040CD
:1014D40000100240000C014080B584B000AF786079
:1014E4007B681B68164A93420CD1164B9B69154ABC
:1014F40043F400639361134B9B6903F40063FB6043
:10150400FB6818E07B681B68B3F1804F13D10D4B67
:10151400DB690C4A43F00103D3610A4BDB6903F036
:101524000103BB60BB68002201211C2000F051FEB6
:101534001C2000F06AFE00BF1037BD4680BD00BF0E
:10154400002C01400010024080B487B000AF7860E6
:101554007B681B68184A934218D1184B9B69174A39
:1015640043F001039361154B9B6903F001037B6115
:101574007B69124BDB69114A43F00403D3610F4BBF
:10158400DB6903F004033B613B6910E07B681B6883
:101594000B4A93420BD1094B9B69084A43F400530D
:1015A4009361064B9B6903F40053FB60FB6800BF27
:1015B4001C37BD4680BC7047000800400010024044
:1015C4000034014080B58AB000AF786007F114039D
:1015D40000221A605A609A60DA607B681B68264AA7
:1015E400934227D1254B9B69244A43F020039361FE
:1015F400224B9B6903F020033B613B694FF400538A
:101604007B610223BB6102233B6207F11403194689
:101614001B4800F0E5FE1B4B5B687B627B6A43F072
:10162400E0637B627B6A43F480537B62154A7B6A86
:1016340053601CE07B681B68134A934217D10F4B1D
:101644009B690E4A43F0100393610C4B9B6903F0B2
:101654001003FB60FB6880237B610223BB610223D0
:101664003B6207F114031946084800F0B9FE00BFB5
:101674002837BD4680BD00BF00080040001002406E
:1016840000140140000001400034014000100140FA
:1016940080B594B000AF786007F1380300221A6077
:1016A4005A609A60DA607B681B68A14A934232D11F
:1016B400A04BDB699F4A43F40023D3619D4BDB6954
:1016C40003F400237B637B6B9A4B9B69994A43F039
:1016D40010039361974B9B6903F010033B633B6BCF
:1016E4004FF48063BB630223FB6303237B6407F132
:1016F40038031946904800F073FE4FF40063BB634F
:101704000023FB6300233B6407F1380319468A482E
:1017140000F066FE07E17B681B68884A93423DD16E
:10172400844BDB69834A43F48013D361814BDB69C7
:1017340003F48013FB62FB6A7E4B9B697D4A43F092
:10174400100393617B4B9B6903F01003BB62BB6A7C
:10175400784B9B69774A43F020039361754B9B69EF
:1017640003F020037B627B6A4FF48053BB63022344
:10177400FB6303237B6407F1380319466E4800F0CA
:101784002FFE0423BB630023FB6300233B6407F1A8
:10179400380319466A4800F023FEC4E07B681B68DE
:1017A400684A934232D1634B9B69624A43F4804353
:1017B4009361604B9B6903F480433B623B6A5D4BDE
:1017C4009B695C4A43F0040393615A4B9B6903F0A1
:1017D4000403FB61FB694FF40073BB630223FB63E7
:1017E40003237B6407F138031946574800F0F8FDDA
:1017F4004FF48063BB630023FB6300233B6407F166
:1018040038031946504800F0EBFD8CE07B681B68F8
:101814004E4A93423ED1474BDB69464A43F4003378
:10182400D361444BDB6903F40033BB61BB69414BB7
:101834009B69404A43F0200393613E4B9B6903F04C
:1018440020037B617B692023BB630223FB630323A7
:101854007B6407F138031946394800F0C1FD402381
:10186400BB630023FB6300233B6407F13803194681
:10187400334800F0B5FD364B5B68BB64BB6C43F08A
:10188400E063BB64BB6C43F00803BB64304ABB6CCD
:10189400536048E07B681B682E4A934243D1254B32
:1018A400DB69244A43F48023D361224BDB6903F4CC
:1018B40080233B613B691F4B9B691E4A43F0200315
:1018C40093611C4B9B6903F02003FB60FB684FF49E
:1018D4008073BB630223FB6303237B6407F1380338
:1018E4001946174800F07CFD4FF40073BB630023D6
:1018F400FB6300233B6407F138031946104800F0EA
:101904006FFD134B5B68FB64FB6C23F03003FB64DB
:10191400FB6C43F0E063FB64FB6C43F03003FB645B
:101924000B4AFB6C536000BF5037BD4680BD00BFFF
:10193400004C0040001002400010014000500040E4
:1019440000140140003801400008014000440040F8
:10195400000001400048004080B485B000AF7860CA
:101964007B681B68094A93420BD1094BDB69084A1F
:1019740043F40003D361064BDB6903F40003FB600B
:10198400FB6800BF1437BD4680BC7047005C004054
:101994000010024080B400AFFEE780B400AFFEE761
:1019A40080B400AFFEE780B400AFFEE780B400AFC0
:1019B400FEE780B400AF00BFBD4680BC704780B472
:1019C40000AF00BFBD4680BC704780B400AF00BF0D
:1019D400BD4680BC704780B500AF00F0B5F800BFCD
:1019E40080BD000080B500AF024803F0B1F900BF2C
:1019F40080BD00BF1002002080B586B000AF7860C3
:101A0400144A154BD31A7B617B693B61134B1B68EA
:101A1400002B02D1114B124A1A60104B1A687B68D2
:101A240013443A699A4207D204F0EEFA03460C22B0
:101A34001A604FF0FF3309E0084B1B68FB60074B4B
:101A44001A687B681344054A1360FB681846183704
:101A5400BD4680BD00C000200004000044070020F3
:101A64009808002080B400AF00BFBD4680BC70471A
:101A7400FFF7F8FF0B480C490C4A002302E0D45846
:101A8400C4500433C4188C42F9D3094A094C0023C6
:101A940001E013600432A242FBD304F0BBFAFFF767
:101AA400E1F97047000000205C000020546A00083F
:101AB4005C00002094080020FEE7000080B500AF21
:101AC400084B1B68074A43F010031360032000F01F
:101AD40075FB0F2000F008F8FFF75AFB00231846A7
:101AE40080BD00BF0020024080B582B000AF7860A6
:101AF400124B1A68124B1B7819464FF47A73B3FBD6
:101B0400F1F3B2FBF3F3184600F08DFB0346002B10
:101B140001D001230EE07B680F2B0AD800227968DC
:101B24004FF0FF3000F055FB064A7B68136000233A
:101B340000E0012318460837BD4680BD00000020A0
:101B4400080000200400002080B400AF054B1B787F
:101B54001A46054B1B681344034A136000BFBD4675
:101B640080BC7047080000204807002080B400AF04
:101B7400024B1B681846BD4680BC704748070020CE
:101B840080B584B000AF7860FFF7F0FFB8607B6881
:101B9400FB60FB68B3F1FF3F05D00A4B1B781A4684
:101BA400FB681344FB6000BFFFF7E0FF0246BB681D
:101BB400D31AFA689A42F7D800BF00BF1037BD465F
:101BC40080BD00BF0800002080B584B000AF7860FD
:101BD4007B68002B01D10123EDE07B6893F8203072
:101BE400DBB2002B02D17868FFF700FB7B681B682F
:101BF4001A687B681B6842F001021A60FFF7B6FF9F
:101C0400F86012E0FFF7B2FF0246FB68D31A0A2B12
:101C14000BD97B685B6A43F400327B685A627B6849
:101C2400052283F820200123C5E07B681B685B68DC
:101C340003F00103002BE5D07B681B681A687B68FE
:101C44001B6822F002021A60FFF790FFF86012E0AE
:101C5400FFF78CFF0246FB68D31A0A2B0BD97B686B
:101C64005B6A43F400327B685A627B68052283F81E
:101C7400202001239FE07B681B685B6803F002035C
:101C8400002BE5D17B681B7E012B08D17B681B6888
:101C94001A687B681B6842F080021A6007E07B6860
:101CA4001B681A687B681B6822F080021A607B68D4
:101CB4005B7E012B08D17B681B681A687B681B68F4
:101CC40042F040021A6007E07B681B681A687B6870
:101CD4001B6822F040021A607B689B7E012B08D1AE
:101CE4007B681B681A687B681B6842F020021A60D4
:101CF40007E07B681B681A687B681B6822F0200277
:101D04001A607B68DB7E012B08D17B681B681A682C
:101D14007B681B6822F010021A6007E07B681B686E
:101D24001A687B681B6842F010021A607B681B7F8C
:101D3400012B08D17B681B681A687B681B6842F01A
:101D440008021A6007E07B681B681A687B681B68D6
:101D540022F008021A607B685B7F012B08D17B6844
:101D64001B681A687B681B6842F004021A6007E06B
:101D74007B681B681A687B681B6822F004021A607F
:101D84007B689A687B68DB681A437B681B691A4323
:101D94007B685B6942EA03017B685B685A1E7B6867
:101DA4001B680A43DA617B6800225A627B6801225D
:101DB40083F82020002318461037BD4680BD80B428
:101DC40087B000AF786039607B681B687B617B6893
:101DD40093F82030FB74FB7C012B03D0FB7C022B9B
:101DE40040F0AA807B69D3F8003243F001027B699A
:101DF400C3F800223B685B6903F01F03012202FA67
:101E040003F3FB607B69D3F81C22FB68DB431A40B5
:101E14007B69C3F81C223B68DB69002B23D17B69F7
:101E2400D3F80C22FB68DB431A407B69C3F80C220D
:101E34003B68DB6819043B685B689BB23A6852698B
:101E440019437B69483243F832103B689B68190494
:101E54003B681B689AB23B685B690A4379694833FB
:101E6400DB000B445A603B68DB69012B22D17B69A0
:101E7400D3F80C22FB681A437B69C3F80C223B6835
:101E84001B6819043B685B689BB23A685269194342
:101E94007B69483243F832103B689B6819043B68FD
:101EA400DB689AB23B685B690A4379694833DB00B3
:101EB4000B445A603B689B69002B09D17B69D3F8BA
:101EC4000422FB68DB431A407B69C3F8042207E061
:101ED4007B69D3F80422FB681A437B69C3F80422A4
:101EE4003B681B69002B09D17B69D3F81422FB687A
:101EF400DB431A407B69C3F8142207E07B69D3F8FB
:101F04001422FB681A437B69C3F814223B681B6ADA
:101F1400012B07D17B69D3F81C22FB681A437B6928
:101F2400C3F81C227B69D3F8003223F001027B69D9
:101F3400C3F80022002306E07B685B6A43F4802236
:101F44007B685A62012318461C37BD4680BC704723
:101F540080B584B000AF78607B6893F82030DBB242
:101F6400012B2ED17B68022283F820207B681B681A
:101F74001A687B681B6822F001021A60FFF7F6FDFD
:101F8400F86012E0FFF7F2FD0246FB68D31A0A2B51
:101F94000BD97B685B6A43F400327B685A627B68C6
:101FA400052283F82020012312E07B681B685B680C
:101FB40003F00103002BE5D17B6800225A62002361
:101FC40006E07B685B6A43F400227B685A62012363
:101FD40018461037BD4680BD80B485B000AF786028
:101FE40039607B6893F82030FB73FB7B012B02D0B4
:101FF400FB7B022B09D17B681B6859697B681B68D2
:102004003A680A435A61002306E07B685B6A43F43A
:1020140080227B685A62012318461437BD4680BC6F
:102024007047000080B485B000AF78607B6803F02F
:102034000703FB600C4BDB68BB60BA684FF6FF0319
:102044001340BB60FB681A02BB68134343F0BF63D1
:1020540043F40033BB60044ABB68D36000BF143749
:10206400BD4680BC704700BF00ED00E080B400AF07
:10207400044BDB681B0A03F007031846BD4680BC0B
:10208400704700BF00ED00E080B483B000AF0346AA
:10209400FB7197F90730002B0BDBFB7903F01F0270
:1020A400064997F907305B09012000FA02F241F86A
:1020B400232000BF0C37BD4680BC704700E100E020
:1020C40080B483B000AF03463960FB7197F90730E1
:1020D400002B0ADB3B68DAB20C4997F9073012018E
:1020E400D2B20B4483F800230AE03B68DAB2084911
:1020F400FB7903F00F03043B1201D2B20B441A76AE
:1021040000BF0C37BD4680BC704700BF00E100E053
:1021140000ED00E080B489B000AFF860B9607A6087
:10212400FB6803F00703FB61FB69C3F10703042B9E
:1021340028BF0423BB61FB690433062B02D9FB6966
:10214400033B00E000237B614FF0FF32BB6902FADE
:1021540003F3DA43BB681A407B699A404FF0FF31BE
:102164007B6901FA03F3D9437B680B401343184698
:102174002437BD4680BC704780B582B000AF78601C
:102184007B68013BB3F1807F01D301230FE00A4A4E
:102194007B68013B53600F214FF0FF30FFF790FF46
:1021A400054B00229A60044B07221A60002318464C
:1021B4000837BD4680BD00BF10E000E080B582B0A6
:1021C40000AF78607868FFF72DFF00BF0837BD4681
:1021D40080BD80B586B000AF0346B9607A60FB73FA
:1021E40000237B61FFF742FF78617A68B9687869F8
:1021F400FFF790FF024697F90F3011461846FFF794
:102204005FFF00BF1837BD4680BD80B582B000AF08
:102214000346FB7197F907301846FFF735FF00BFF7
:102224000837BD4680BD80B582B000AF786078685D
:10223400FFF7A2FF034618460837BD4680BD80B5A8
:1022440082B000AF78607B68002B01D1012314E0D9
:102254007B681B79DBB2002B05D17B6800225A71A5
:102264007868FFF721F87B6802221A717B680022E4
:102274001A617B6801221A71002318460837BD468B
:1022840080BD80B483B000AF786039607B68002B78
:1022940001D1012346E07B685B79012B01D1022344
:1022A40040E07B6801225A717B6802221A717B68C4
:1022B4001B6819683B6803F0100301229A407B688D
:1022C4001B680A431A603B68002B0FD17B681B68AC
:1022D4001B6803F03C033C2B1DD17B681B685A68C8
:1022E4007B681B6842F001025A6014E07B681B683B
:1022F4001B6803F470123B6803F010033C2101FADD
:1023040003F39A4207D17B681B685A687B681B6891
:1023140042F002025A607B6801221A717B68002233
:102324005A71002318460C37BD4680BC704780B4F0
:1023340089B000AFF860B9607A600023FB77FB686E
:10234400002B02D0BB68002B01D1012342E0FB68C3
:102354005B79012B01D102233CE0FB6801225A7115
:10236400FB6802221A71FB681B681B68BB617B68EF
:1023740003F0100340F6FE7202FA03F3DB43BA697A
:102384001340BB61BB681A68BB685B6813437B611D
:102394007B6803F010037A6902FA03F3BA69134302
:1023A400BB61FB681B68BA691A60FB681B68196823
:1023B4007B6803F01003C02202FA03F3DA43FB68DC
:1023C4001B680A401A60FB6801221A71FB6800222C
:1023D4005A71FB7F18462437BD4680BC7047000005
:1023E40080B48BB000AF7860396000237B62002337
:1023F4003B6279E101227B6A02FA03F3FB613B68E9
:102404001B68FA691340BB61BA69FB699A4240F0E0
:1024140068813B685B68964A93425ED0944A9342D3
:1024240075D8944A934258D0924A93426FD8924AAC
:10243400934252D0904A934269D8904A93424CD0E6
:102444008E4A934263D88E4A934246D08C4A934232
:102454005DD8122B2AD8122B59D801A252F823F096
:10246400DF240008B9240008CB2400080D25000847
:102474001325000813250008132500081325000858
:102484001325000813250008132500081325000848
:102494001325000813250008132500081325000838
:1024A40013250008C1240008D5240008754A934266
:1024B40013D02CE03B68DB683B6229E03B68DB68B7
:1024C40004333B6224E03B68DB6808333B621FE073
:1024D4003B68DB680C333B621AE03B689B68002B6B
:1024E40002D104233B6213E03B689B68012B05D1B6
:1024F40008233B627B68FA691A6109E008233B629E
:102504007B68FA695A6103E000233B6200E000BF84
:10251400BB69FF2B01D87B6801E07B6804337B61D6
:10252400BB69FF2B02D87B6A9B0002E07B6A083BF5
:102534009B003B617B691A680F213B6901FA03F335
:10254400DB431A40396A3B6901FA03F31A437B6996
:102554001A603B685B6803F08053002B00F0C18075
:10256400494B9B69484A43F001039361464B9B697D
:1025740003F00103BB60BB68444A7B6A9B080233D7
:1025840052F82330FB607B6A03F003039B000F22A5
:1025940002FA03F3DB43FA681340FB607B683C4AAE
:1025A40093421FD07B683B4A934219D07B683A4AD6
:1025B400934213D07B68394A93420DD07B68384AE2
:1025C400934207D07B68374A934201D105230AE03E
:1025D400062308E0042306E0032304E0022302E0C8
:1025E400012300E000237A6A02F003029200934080
:1025F400FA681343FB6025497B6A9B080233FA6837
:1026040041F823203B685B6803F48013002B06D059
:10261400254B9A682449BB6913438B6006E0224B1F
:102624009A68BB69DB43204913408B603B685B6855
:1026340003F40013002B06D01B4BDA681A49BB695C
:102644001343CB6006E0184BDA68BB69DB431649D9
:102654001340CB603B685B6803F40033002B25D048
:10266400114B5A681049BB6913434B6025E000BF06
:102674000000321000003110000022100000211070
:102684000000121000001110001002400000014070
:1026940000080140000C01400010014000140140FA
:1026A40000180140001C014000040140154B5A6809
:1026B400BB69DB43134913404B603B685B6803F41D
:1026C4008033002B06D00F4B1A680E49BB691343A5
:1026D4000B6006E00B4B1A68BB69DB4309491340E6
:1026E4000B607B6A01337B623B681A687B6A22FA5F
:1026F40003F3002B7FF47EAE00BF00BF2C37BD4632
:1027040080BC70470004014080B485B000AF78609D
:102714000B467B807B689A687B881340002B02D031
:102724000123FB7301E00023FB73FB7B1846143782
:10273400BD4680BC704780B483B000AF78600B4660
:102744007B8013467B707B78002B03D07A887B6870
:102754001A6103E07B881A047B681A6100BF0C3796
:10276400BD4680BC704780B485B000AF78600B462E
:102774007B807B68DB68FB607A88FB6813401A0403
:10278400FB68D9437B880B401A437B681A6100BFFE
:102794001437BD4680BC704780B584B000AF786004
:1027A4007B68002B01D101232BE17B6893F83D303A
:1027B400DBB2002B06D17B68002283F83C207868CA
:1027C400FEF7AEFD7B68242283F83D207B681B68FE
:1027D4001A687B681B6822F001021A607B681B6818
:1027E4001A687B681B6842F400421A607B681B68A5
:1027F4001A687B681B6822F400421A6001F036FDF7
:10280400F8607B685B68814A934207D8FB68804A1A
:10281400934294BF01230023DBB206E0FB687D4AA8
:10282400934294BF01230023DBB2002B01D0012388
:10283400E7E0FB68784AA2FB03239B0CBB607B6840
:102844001B685B6823F03F017B681B68BA680A4316
:102854005A607B681B681B6A23F03F017B685B68D6
:102864006A4A934202D8BB68013309E0BB684FF45B
:10287400967202FB03F3694AA2FB03239B0901330B
:102884007A6812680B4313627B681B68DB6923F464
:102894004F4222F0FF027B685B685C498B4219D887
:1028A400FB68591E7B685B685B00B1FBF3F3591C42
:1028B40040F6FC730B40002B0AD0FB68591E7B6862
:1028C4005B685B00B1FBF3F30133C3F30B0351E02B
:1028D40004234FE07B689B68002B11D1FB68581ED2
:1028E4007B6859680B465B000B44B0FBF3F3013380
:1028F400C3F30B03002B0CBF01230023DBB212E054
:10290400FB68581E7B6859680B469B000B44990072
:102914000B44B0FBF3F30133C3F30B03002B0CBFE5
:1029240001230023DBB2002B01D0012322E07B68CA
:102934009B68002B0ED1FB68581E7B6859680B46B8
:102944005B000B44B0FBF3F30133C3F30B0343F419
:1029540000430FE0FB68581E7B6859680B469B00D8
:102964000B4499000B44B0FBF3F30133C3F30B03A3
:1029740043F44043796809681343CB617B681B685F
:102984001B6823F0C0017B68DA697B681B6A1A4301
:102994007B681B680A431A607B681B689B6823F486
:1029A400034323F0FF037A6811697A68D2681143FC
:1029B4007A6812680B4393607B681B68DB6823F0BA
:1029C400FF017B685A697B689B691A437B681B68B3
:1029D4000A43DA607B681B681A687B681B6842F0EC
:1029E40001021A607B6800221A647B68202283F843
:1029F4003D207B6800221A637B68002283F83E2016
:102A0400002318461037BD4680BD00BFA0860100D4
:102A14007F841E00FF083D0083DE1B43D34D6210FC
:102A240080B588B002AFF860084611461A460346DE
:102A34007B810B463B811346FB80FFF797F8786157
:102A4400FB6893F83D30DBB2202B40F0D9807B69E2
:102A54000093192301226D49F86800F0CDFC034668
:102A6400002B01D00223CCE0FB6893F83C30012B0F
:102A740001D10223C5E0FB68012283F83C20FB68F6
:102A84001B681B6803F00103012B07D0FB681B685C
:102A94001A68FB681B6842F001021A60FB681B6835
:102AA4001A68FB681B6822F400621A60FB68212222
:102AB40083F83D20FB68402283F83E20FB68002217
:102AC4001A64FB683A6A5A62FB68BA8C5A85FB68D6
:102AD4005B8D9AB2FB681A85FB684D4ADA62F88806
:102AE4003A8979897B690193BB6A00930346F86844
:102AF40000F004FB0346002B52D0012381E07A69E5
:102B0400B96AF86800F092FD0346002B0DD0FB680B
:102B14001B6C042B07D1FB681B681A68FB681B68D5
:102B240042F400721A6001236BE0FB685B6A1A7856
:102B3400FB681B681A61FB685B6A5A1CFB685A6273
:102B4400FB681B8D013B9AB2FB681A85FB685B8DA1
:102B54009BB2013B9AB2FB685A85FB681B685B69B0
:102B640003F00403042B1BD1FB681B8D002B17D02F
:102B7400FB685B6A1A78FB681B681A61FB685B6A0E
:102B84005A1CFB685A62FB681B8D013B9AB2FB68B6
:102B94001A85FB685B8D9BB2013B9AB2FB685A8530
:102BA400FB681B8D002BAAD17A69B96AF86800F01A
:102BB40085FD0346002B0DD0FB681B6C042B07D14D
:102BC400FB681B681A68FB681B6842F400721A6091
:102BD400012316E0FB681B681A68FB681B6842F453
:102BE40000721A60FB68202283F83D20FB680022F3
:102BF40083F83E20FB68002283F83C20002300E099
:102C0400022318461837BD4680BD00BF02001000DD
:102C14000000FFFF80B58CB002AFF8600846114693
:102C24001A4603467B810B463B811346FB800023F7
:102C34003B62FEF79BFF7862FB6893F83D30DBB2A2
:102C4400202B40F050827B6A009319230122824991
:102C5400F86800F0D1FB0346002B01D0022343E2C5
:102C6400FB6893F83C30012B01D102233CE2FB6862
:102C7400012283F83C20FB681B681B6803F00103F6
:102C8400012B07D0FB681B681A68FB681B6842F0BD
:102C940001021A60FB681B681A68FB681B6822F44F
:102CA40000621A60FB68222283F83D20FB68402200
:102CB40083F83E20FB6800221A64FB683A6B5A6270
:102CC400FB68BA8E5A85FB685B8D9AB2FB681A85DD
:102CD400FB68624ADA62F8883A8979897B6A0193E7
:102CE400BB6B00930346F86800F09EFA0346002B82
:102CF40001D00123F8E1FB681B8D002B13D10023C5
:102D0400FB61FB681B685B69FB61FB681B689B6973
:102D1400FB61FB69FB681B681A68FB681B6842F46B
:102D240000721A60CCE1FB681B8D012B1ED1FB687D
:102D34001B681A68FB681B6822F480621A6072B60A
:102D440000BF0023BB61FB681B685B69BB61FB6858
:102D54001B689B69BB61BB69FB681B681A68FB68DD
:102D64001B6842F400721A6062B635E0FB681B8D82
:102D7400022B1ED1FB681B681A68FB681B6842F4AF
:102D840000621A6072B600BF00237B61FB681B6897
:102D94005B697B61FB681B689B697B617B69FB6882
:102DA4001B681A68FB681B6822F480621A6062B6AA
:102DB40012E0FB681B681A68FB681B6842F48062B7
:102DC4001A6000233B61FB681B685B693B61FB681D
:102DD4001B689B693B613B6972E1FB681B8D032B9C
:102DE40000F21F81FB681B8D012B23D17A6AB96B1A
:102DF400F86800F0ABFC0346002B01D0012373E11B
:102E0400FB681B681A69FB685B6AD2B21A70FB68BC
:102E14005B6A5A1CFB685A62FB681B8D013B9AB2C1
:102E2400FB681A85FB685B8D9BB2013B9AB2FB6819
:102E34005A8545E1FB681B8D022B52D17B6A0093B6
:102E4400BB6B00220649F86800F0D6FA0346002B53
:102E540008D0012348E100BF020010000000FFFF7A
:102E64000400010072B600BFFB681B681A68FB68A7
:102E74001B6842F400721A60FB681B681A69FB68DD
:102E84005B6AD2B21A70FB685B6A5A1CFB685A62AE
:102E9400FB681B8D013B9AB2FB681A85FB685B8D4E
:102EA4009BB2013B9AB2FB685A8562B600BFFB68CD
:102EB4001B681A69FB685B6AD2B21A70FB685B6AAA
:102EC4005A1CFB685A62FB681B8D013B9AB2FB6873
:102ED4001A85FB685B8D9BB2013B9AB2FB685A85ED
:102EE400EEE07B6A0093BB6B00228149F86800F036
:102EF40083FA0346002B01D00123F5E0FB681B682D
:102F04001A68FB681B6822F480621A6072B600BFFC
:102F1400FB681B681A69FB685B6AD2B21A70FB68AB
:102F24005B6A5A1CFB685A62FB681B8D013B9AB2B0
:102F3400FB681A85FB685B8D9BB2013B9AB2FB6808
:102F44005A856C4B1B68DB086B4AA2FB03231A0AE5
:102F540013469B001344DA00D31A3B623B6A013BDD
:102F64003B623B6A002B18D1FB6800221A63FB68A2
:102F7400202283F83D20FB68002283F83E20FB6872
:102F84001B6C43F02002FB681A6462B600BFFB6846
:102F9400002283F83C200123A6E0FB681B685B69E0
:102FA40003F00403042BD9D1FB681B681A68FB687F
:102FB4001B6842F400721A60FB681B681A69FB689C
:102FC4005B6AD2B21A70FB685B6A5A1CFB685A626D
:102FD400FB681B8D013B9AB2FB681A85FB685B8D0D
:102FE4009BB2013B9AB2FB685A8562B600BFFB688C
:102FF4001B681A69FB685B6AD2B21A70FB685B6A69
:103004005A1CFB685A62FB681B8D013B9AB2FB6831
:103014001A85FB685B8D9BB2013B9AB2FB685A85AB
:103024004EE07A6AB96BF86800F090FB0346002B17
:1030340001D0012358E0FB681B681A69FB685B6ACE
:10304400D2B21A70FB685B6A5A1CFB685A62FB684E
:103054001B8D013B9AB2FB681A85FB685B8D9BB2A2
:10306400013B9AB2FB685A85FB681B685B6903F0F5
:103074000403042B24D1FB681B8D032B07D1FB68AD
:103084001B681A68FB681B6822F480621A60FB687C
:103094001B681A69FB685B6AD2B21A70FB685B6AC8
:1030A4005A1CFB685A62FB681B8D013B9AB2FB6891
:1030B4001A85FB685B8D9BB2013B9AB2FB685A850B
:1030C400FB681B8D002B7FF488AEFB68202283F8FD
:1030D4003D20FB68002283F83E20FB68002283F831
:1030E4003C20002300E0022318462837BD4680BD5B
:1030F400040001000000002089B5F81480B588B0F0
:1031040002AFF860084611461A4603467B810B4617
:103114003B811346FB80FB681B681A68FB681B68CD
:1031240042F480721A607B6A00933B6A00224FF07B
:103134000111F86800F060F90346002B0DD0FB681C
:103144001B681B6803F48073B3F5807F03D1FB68AD
:103154004FF400721A6403235FE07B89DBB21A46E2
:10316400FB681B6802F0FE021A617B6A3A6A2D4909
:10317400F86800F0BBF90346002B01D001234CE0B2
:1031840000237B61FB681B685B697B61FB681B68D0
:103194009B697B617B697A6A396AF86800F046FA50
:1031A4000346002B0DD0FB681B6C042B07D1FB6876
:1031B4001B681A68FB681B6842F400721A600123DA
:1031C4002BE0FB88012B05D13B89DAB2FB681B6835
:1031D4001A6121E03B891B0A9BB2DAB2FB681B68C7
:1031E4001A617A6A396AF86800F020FA0346002BFB
:1031F4000DD0FB681B6C042B07D1FB681B681A6895
:10320400FB681B6842F400721A60012305E03B89E5
:10321400DAB2FB681B681A61002318461837BD46EA
:1032240080BD00BF0200010080B588B002AFF86025
:10323400084611461A4603467B810B463B811346DA
:10324400FB80FB681B681A68FB681B6842F4806299
:103254001A60FB681B681A68FB681B6842F480727A
:103264001A607B6A00933B6A00224FF00111F868F0
:1032740000F0C2F80346002B0DD0FB681B681B68E6
:1032840003F48073B3F5807F03D1FB684FF40072BD
:103294001A640323AAE07B89DBB21A46FB681B6825
:1032A40002F0FE021A617B6A3A6A5249F86800F039
:1032B4001DF90346002B01D0012397E000237B6115
:1032C400FB681B685B697B61FB681B689B697B61AE
:1032D4007B697A6A396AF86800F0A8F90346002B1A
:1032E4000DD0FB681B6C042B07D1FB681B681A68A4
:1032F400FB681B6842F400721A60012376E0FB88C5
:10330400012B05D13B89DAB2FB681B681A6121E005
:103314003B891B0A9BB2DAB2FB681B681A617A6AA2
:10332400396AF86800F082F90346002B0DD0FB6877
:103334001B6C042B07D1FB681B681A68FB681B68AD
:1033440042F400721A60012350E03B89DAB2FB6850
:103354001B681A617A6A396AF86800F067F90346EB
:10336400002B0DD0FB681B6C042B07D1FB681B687A
:103374001A68FB681B6842F400721A60012335E086
:10338400FB681B681A68FB681B6842F480721A6049
:103394007B6A00933B6A00224FF00111F86800F049
:1033A4002BF80346002B0DD0FB681B681B6803F445
:1033B4008073B3F5807F03D1FB684FF400721A6405
:1033C400032313E07B89DBB243F00103DAB2FB6829
:1033D4001B681A617B6A3A6A0649F86800F086F845
:1033E4000346002B01D0012300E0002318461837C0
:1033F400BD4680BD0200010080B584B000AFF86016
:10340400B9603B601346FB7148E03B68B3F1FF3F92
:1034140044D0FEF7ABFB0246BB69D31A3A689A4222
:1034240002D33B68002B39D1BB681B0CDBB2012BE8
:103434000DD1FB681B685B69DA43BB6813409BB220
:10344400002B0CBF01230023DBB21A460CE0FB68FF
:103454001B689B69DA43BB6813409BB2002B0CBF0B
:1034640001230023DBB21A46FB799A4216D1FB688A
:1034740000221A63FB68202283F83D20FB680022A7
:1034840083F83E20FB681B6C43F02002FB681A643F
:10349400FB68002283F83C20012323E0BB681B0C5B
:1034A400DBB2012B0DD1FB681B685B69DA43BB6897
:1034B40013409BB2002B0CBF01230023DBB21A463E
:1034C4000CE0FB681B689B69DA43BB6813409BB242
:1034D400002B0CBF01230023DBB21A46FB799A426E
:1034E40093D0002318461037BD4680BD80B584B004
:1034F40000AFF860B9607A603B6071E0FB681B68FC
:103504005B6903F48063B3F5806F23D1FB681B68A8
:103514001A68FB681B6842F400721A60FB681B6837
:103524006FF480625A61FB6800221A63FB682022F0
:1035340083F83D20FB68002283F83E20FB681B6C67
:1035440043F00402FB681A64FB68002283F83C2001
:10355400012367E07B68B3F1FF3F41D0FEF706FB30
:1035640002463B68D31A7A689A4202D37B68002BDE
:1035740036D1BB681B0CDBB2012B0CD1FB681B687A
:103584005B69DA43BB6813409BB2002B14BF012371
:103594000023DBB20BE0FB681B689B69DA43BB6862
:1035A40013409BB2002B14BF01230023DBB2002B7A
:1035B40016D0FB6800221A63FB68202283F83D20A2
:1035C400FB68002283F83E20FB681B6C43F020025A
:1035D400FB681A64FB68002283F83C20012321E085
:1035E400BB681B0CDBB2012B0CD1FB681B685B694D
:1035F400DA43BB6813409BB2002B14BF01230023A2
:10360400DBB20BE0FB681B689B69DA43BB681340C1
:103614009BB2002B14BF01230023DBB2002B7FF4E9
:103624006DAF002318461037BD4680BD80B584B009
:1036340000AFF860B9607A6034E0F86800F0E3F84D
:103644000346002B01D0012334E0BB68B3F1FF3FF4
:1036540028D0FEF78BFA02467B68D31ABA689A42DE
:1036640002D3BB68002B1DD1FB681B685B6903F0A8
:103674008003802B16D0FB6800221A63FB6820228B
:1036840083F83D20FB68002283F83E20FB681B6C16
:1036940043F02002FB681A64FB68002283F83C2094
:1036A400012307E0FB681B685B6903F08003802B40
:1036B400C3D1002318461037BD4680BD80B584B001
:1036C40000AFF860B9607A6034E0F86800F09BF805
:1036D4000346002B01D0012334E0BB68B3F1FF3F64
:1036E40028D0FEF743FA02467B68D31ABA689A4296
:1036F40002D3BB68002B1DD1FB681B685B6903F018
:103704000403042B16D0FB6800221A63FB682022F2
:1037140083F83D20FB68002283F83E20FB681B6C85
:1037240043F02002FB681A64FB68002283F83C2003
:10373400012307E0FB681B685B6903F00403042BA7
:10374400C3D1002318461037BD4680BD80B584B070
:1037540000AFF860B9607A6049E0FB681B685B6998
:1037640003F01003102B19D1FB681B686FF01002D3
:103774005A61FB6800221A63FB68202283F83D200B
:10378400FB68002283F83E20FB681A6CFB681A640D
:10379400FB68002283F83C20012330E0FEF7E6F9C1
:1037A40002467B68D31ABA689A4202D3BB68002BDC
:1037B4001DD1FB681B685B6903F04003402B16D0E6
:1037C400FB6800221A63FB68202283F83D20FB6813
:1037D400002283F83E20FB681B6C43F02002FB6848
:1037E4001A64FB68002283F83C20012307E0FB688D
:1037F4001B685B6903F04003402BAED100231846DD
:103804001037BD4680BD80B483B000AF78607B685C
:103814001B685B6903F48063B3F5806F1BD17B681D
:103824001B686FF480625A617B6800221A637B68AC
:10383400202283F83D207B68002283F83E207B68A9
:103844001B6C43F004027B681A647B68002283F8D3
:103854003C20012300E0002318460C37BD4680BC01
:10386400704780B584B000AF78607B68002B01D1CD
:103874000123E8E07B6893F89132DBB2002B06D198
:103884007B68002283F890227868FEF765F87B68ED
:10389400032283F891227B6800225A717B681B689B
:1038A400184602F03CFB7B6818687B6804330ECB37
:1038B40002F028FB0346002B05D07B68022283F824
:1038C40091220123BFE07B681B680021184602F0A7
:1038D40040FB0346002B05D07B68022283F891222B
:1038E4000123B0E00023FB733EE0FA7B79681346C2
:1038F4009B001344DB000B44113301221A70FA7B42
:10390400796813469B001344DB000B441033FA7BA5
:103914001A70FA7B796813469B001344DB000B444E
:10392400133300221A70FA7B796813469B00134400
:10393400DB000B44203300221A60FA7B79681346BB
:103944009B001344DB000B44243300221A60FB7BEE
:1039540079685A1C13469B001344DB000B44002275
:103964001A60FB7B0133FB737B681B79FA7B9A42F9
:10397400BBD30023FB7344E0FA7B796813469B00B6
:103984001344DB000B4403F2511300221A70FA7B38
:10399400796813469B001344DB000B4403F5A873BA
:1039A400FA7B1A70FA7B796813469B001344DB0098
:1039B4000B4403F2531300221A70FA7B79681346FE
:1039C4009B001344DB000B4403F5B07300221A6020
:1039D400FA7B796813469B001344DB000B4403F520
:1039E400B27300221A60FA7B796813469B00134471
:1039F400DB000B4403F5B47300221A60FB7B013334
:103A0400FB737B681B79FA7B9A42B5D37B68186891
:103A14007B6804330ECB02F0A8FA0346002B05D0D2
:103A24007B68022283F8912201230CE07B68002248
:103A34005A737B68012283F891227B681B681846BD
:103A440002F0B0FA002318461037BD4680BD0000CE
:103A540080B400AF034B01221A6000BFBD4680BC96
:103A6400704700BF20000E4280B586B000AF78607A
:103A74007B68002B01D1012372E27B681B6803F091
:103A84000103002B00F08780924B5B6803F00C036A
:103A9400042B0CD08F4B5B6803F00C03082B12D162
:103AA4008C4B5B6803F48033B3F5803F0BD1894BB7
:103AB4001B6803F40033002B6CD07B685B68002B1D
:103AC40068D101234CE27B685B68B3F5803F06D183
:103AD400804B1B687F4A43F4803313602EE07B687D
:103AE4005B68002B0CD17B4B1B687A4A23F4803330
:103AF4001360784B1B68774A23F4802313601DE01E
:103B04007B685B68B3F5A02F0CD1724B1B68714ABC
:103B140043F4802313606F4B1B686E4A43F4803375
:103B240013600BE06B4B1B686A4A23F48033136009
:103B3400684B1B68674A23F4802313607B685B68C7
:103B4400002B13D0FEF712F8386108E0FEF70EF8E8
:103B540002463B69D31A642B01D9032300E25D4B6F
:103B64001B6803F40033002BF0D014E0FDF7FEFFD4
:103B7400386108E0FDF7FAFF02463B69D31A642B6B
:103B840001D90323ECE1534B1B6803F40033002BEE
:103B9400F0D100E000BF7B681B6803F00203002B38
:103BA40063D04C4B5B6803F00C03002B0BD0494BE8
:103BB4005B6803F00C03082B1CD1464B5B6803F4D1
:103BC4008033002B16D1434B1B6803F00203002BF8
:103BD40005D07B681B69012B01D00123C0E13D4B5B
:103BE4001B6823F0F8027B685B69DB0039491343E7
:103BF4000B603AE07B681B69002B20D0364B012216
:103C04001A60FDF7B3FF386108E0FDF7AFFF024625
:103C14003B69D31A022B01D90323A1E12D4B1B6865
:103C240003F00203002BF0D02A4B1B6823F0F802A8
:103C34007B685B69DB00274913430B6015E0264B67
:103C440000221A60FDF792FF386108E0FDF78EFF4D
:103C540002463B69D31A022B01D9032380E11D4B91
:103C64001B6803F00203002BF0D17B681B6803F090
:103C74000803002B3AD07B689B69002B19D0174BA3
:103C840001221A60FDF772FF386108E0FDF76EFF4C
:103C940002463B69D31A022B01D9032360E10D4B81
:103CA4005B6A03F00203002BF0D0012000F006FB56
:103CB4001CE00A4B00221A60FDF758FF38610FE040
:103CC400FDF754FF02463B69D31A022B08D903239C
:103CD40046E100BF0010024000004242800442421C
:103CE400924B5B6A03F00203002BE9D17B681B68EB
:103CF40003F00403002B00F0A6800023FB758B4B1C
:103D0400DB6903F08053002B0DD1884BDB69874AB4
:103D140043F08053D361854BDB6903F08053BB6070
:103D2400BB680123FB75824B1B6803F48073002B73
:103D340018D17F4B1B687E4A43F480731360FDF7F0
:103D440015FF386108E0FDF711FF02463B69D31AFD
:103D5400642B01D9032303E1754B1B6803F48073BF
:103D6400002BF0D07B68DB68012B06D16F4B1B6AFC
:103D74006E4A43F0010313622DE07B68DB68002B7D
:103D84000CD16A4B1B6A694A23F001031362674B27
:103D94001B6A664A23F0040313621CE07B68DB6839
:103DA400052B0CD1614B1B6A604A43F00403136278
:103DB4005E4B1B6A5D4A43F0010313620BE05B4BED
:103DC4001B6A5A4A23F001031362584B1B6A574A71
:103DD40023F0040313627B68DB68002B15D0FDF726
:103DE400C5FE38610AE0FDF7C1FE02463B69D31AFD
:103DF40041F28832934201D90323B1E04B4B1B6A51
:103E040003F00203002BEED014E0FDF7AFFE38619F
:103E14000AE0FDF7ABFE02463B69D31A41F2883251
:103E2400934201D903239BE0404B1B6A03F0020336
:103E3400002BEED1FB7D012B05D13C4BDB693B4ACA
:103E440023F08053D3617B68DB69002B00F087800B
:103E5400364B5B6803F00C03082B61D07B68DB698D
:103E6400022B46D1334B00221A60FDF77FFE3861E6
:103E740008E0FDF77BFE02463B69D31A022B01D909
:103E840003236DE0294B1B6803F00073002BF0D172
:103E94007B681B6AB3F5803F08D1244B5B6823F42D
:103EA40000327B689B68214913434B601F4B5B685E
:103EB40023F474127B68196A7B685B6A0B431B49A1
:103EC40013434B601B4B01221A60FDF74FFE386110
:103ED40008E0FDF74BFE02463B69D31A022B01D9D9
:103EE40003233DE0114B1B6803F00073002BF0D05B
:103EF40035E0104B00221A60FDF738FE386108E007
:103F0400FDF734FE02463B69D31A022B01D9032381
:103F140026E0064B1B6803F00073002BF0D11EE073
:103F24007B68DB69012B07D1012319E000100240F3
:103F340000700040600042420B4B5B68FB60FB6812
:103F440003F480327B681B6A9A4206D1FB6803F44F
:103F540070127B685B6A9A4201D0012300E000235F
:103F640018461837BD4680BD0010024080B584B0A5
:103F740000AF786039607B68002B01D10123D0E069
:103F84006A4B1B6803F007033A689A4210D9674BDF
:103F94001B6823F0070265493B6813430B60634BBE
:103FA4001B6803F007033A689A4201D00123B8E082
:103FB4007B681B6803F00203002B20D07B681B681E
:103FC40003F00403002B05D0594B5B68584A43F4B3
:103FD400E06353607B681B6803F00803002B05D083
:103FE400534B5B68524A43F460535360504B5B68D5
:103FF40023F0F0027B689B684D4913434B607B6858
:104004001B6803F00103002B40D07B685B68012B25
:1040140007D1474B1B6803F40033002B15D1012350
:104024007FE07B685B68022B07D1414B1B6803F080
:104034000073002B09D1012373E03D4B1B6803F08F
:104044000203002B01D101236BE0394B5B6823F0A1
:1040540003027B685B68364913434B60FDF786FDBA
:10406400F8600AE0FDF782FD0246FB68D31A41F2CC
:104074008832934201D9032353E02D4B5B6803F04C
:104084000C027B685B689B009A42EBD1274B1B6850
:1040940003F007033A689A4210D2244B1B6823F0BA
:1040A400070222493B6813430B60204B1B6803F053
:1040B40007033A689A4201D0012332E07B681B6807
:1040C40003F00403002B08D0194B5B6823F4E0626F
:1040D4007B68DB68164913434B607B681B6803F0FD
:1040E4000803002B09D0124B5B6823F460527B68F1
:1040F4001B69DB000E4913434B6000F059F802467C
:104104000B4B5B681B0903F00F030A49CB5C22FAD3
:1041140003F3094A1360094B1B681846FDF7E4FCD6
:10412400002318461037BD4680BD00BF0020024062
:1041340000100240D869000800000020040000209C
:1041440080B58AB000AFF860B9607A6007F11803EF
:1041540000221A605A609A60DA600223FB6103232A
:104164007B6200233B624FF48073BB610E4B9B69FF
:104174000D4A43F0040393610B4B9B6903F0040362
:104184007B617B6907F1180319460848FEF728F993
:10419400054B5B6823F0E0620349BB6813434B6043
:1041A40000BF2837BD4680BD001002400008014012
:1041B40080B487B000AF0023FB600023BB60002302
:1041C4007B6100237B6000233B611E4B5B68FB60CB
:1041D400FB6803F00C03042B02D0082B03D027E068
:1041E400194B3B6127E0FB689B0C03F00F03174A54
:1041F400D35C7B60FB6803F48033002B10D0114B3D
:104204005B685B0C03F00103114AD35CBB607B6801
:104214000D4A03FB02F2BB68B2FBF3F37B6104E0DB
:104224007B680C4A02FB03F37B617B693B6102E020
:10423400054B3B6100BF3B6918461C37BD4680BC3B
:10424400704700BF0010024000127A00F0690008B5
:10425400006A000800093D0080B400AF024B1B68EF
:104264001846BD4680BC70470000002080B500AFF2
:10427400FFF7F2FF0246054B5B681B0A03F00703D6
:104284000349CB5C22FA03F3184680BD00100240B8
:10429400E869000880B500AFFFF7DEFF0246054B72
:1042A4005B68DB0A03F007030349CB5C22FA03F3E0
:1042B400184680BD00100240E869000880B485B04B
:1042C40000AF78600A4B1B680A4AA2FB03235B0A0F
:1042D4007A6802FB03F3FB6000BFFB685A1EFA60B6
:1042E400002BF9D100BF00BF1437BD4680BC704716
:1042F40000000020D34D621080B586B000AF786016
:1043040000233B610023FB607B681B6803F001030F
:10431400002B7DD00023FB754F4BDB6903F08053EA
:10432400002B0DD14C4BDB694B4A43F08053D361D6
:10433400494BDB6903F08053BB60BB680123FB7509
:10434400464B1B6803F48073002B18D1434B1B6846
:10435400424A43F480731360FDF708FC386108E0B7
:10436400FDF704FC02463B69D31A642B01D90323ED
:104374006DE03A4B1B6803F48073002BF0D0364B8E
:104384001B6A03F44073FB60FB68002B2ED07B6830
:104394005B6803F44073FA689A4227D02E4B1B6A79
:1043A40023F44073FB602E4B01221A602C4B002235
:1043B4001A60294AFB681362FB6803F00103002BAF
:1043C40014D0FDF7D3FB38610AE0FDF7CFFB0246BA
:1043D4003B69D31A41F28832934201D9032336E070
:1043E4001D4B1B6A03F00203002BEED01A4B1B6A11
:1043F40023F440727B685B68174913430B62FB7DAF
:10440400012B05D1144BDB69134A23F08053D3618C
:104414007B681B6803F00203002B08D00E4B5B681B
:1044240023F440427B689B680B4913434B607B68D1
:104434001B6803F01003002B08D0074B5B6823F4C0
:1044440080027B685B69044913434B600023184670
:104454001837BD4680BD00BF001002400070004008
:104464004004424280B588B000AF786000237B618D
:104474000023FB6100233B610023FB600023BB613D
:104484007B68013B0F2B00F2AF8001A252F823F0AE
:104494006B450008D1450008ED4500085B45000860
:1044A400ED450008ED450008ED45000863450008AA
:1044B400ED450008ED450008ED450008ED45000810
:1044C400ED450008ED450008ED450008D544000819
:1044D4004A4B5B68FB60494B1B6803F08073002BFD
:1044E40000F08480FB689B0C03F00F03444AD35C08
:1044F4003B61FB6803F48033002B15D03F4B5B68B2
:104504005B0C03F001033F4AD35C7B61FB6803F45B
:104514008033002B0DD03C4A7B69B2FBF3F23B693C
:1045240002FB03F3FB6104E03B69384A02FB03F33B
:10453400FB61324B5B6803F48003B3F5800F02D157
:10454400FB69BB6152E0FB695B00314AA2FB0323B8
:104554005B08BB614AE0FFF72BFEB86149E0FFF757
:1045640027FEB86145E0254B1B6AFB60FB6803F43A
:104574004073B3F5807F08D1FB6803F00203002B7E
:1045840003D04FF40043BB611FE0FB6803F44073A6
:10459400B3F5007F09D1194B5B6A03F00203002BCA
:1045A40003D049F64043BB610FE0FB6803F440735A
:1045B400B3F5407F1CD1114B1B6803F40033002B6F
:1045C40016D04FF22443BB6112E011E0FFF762FE04
:1045D40002460A4B5B689B0B03F0030301335B0049
:1045E400B2FBF3F3BB6104E000BF02E000BF00E0F4
:1045F40000BFBB6918462037BD4680BD001002408D
:10460400046A0008146A000800127A0000093D00D8
:10461400ABAAAAAA80B584B000AF78600023FB607F
:104624007B68002B01D101237AE07B685B7CDBB2E1
:10463400002B05D17B6800221A747868FCF7DCFE35
:104644007B6802225A74786800F070F80346002BE5
:1046540004D07B6804225A74012361E0786800F076
:1046640092F80346002B04D07B6804225A74012379
:1046740056E07B681B685A687B681B6822F0070257
:104684005A607B689B68002B05D0274B1B6B264A1E
:1046940023F001031363244BDB6A23F460727B6809
:1046A4009B6821491343CB627B685B68B3F1FF3F8E
:1046B40003D07B685B68FB600EE00120FFF7D2FE4D
:1046C400F860FB68002B04D17B6804225A74012330
:1046D40026E0FB68013BFB60FB681A0C7B681B68E7
:1046E40002F00F029A607B681B68FA6892B2DA6083
:1046F400786800F070F80346002B04D07B6804222D
:104704005A7401230CE07B680022DA737B6801226F
:104714005A737B6801229A737B6801225A740023BE
:1047240018461037BD4680BD006C004080B584B08B
:1047340000AF78600023FB607B68002B01D101236C
:104744001DE07B681B685A687B681B6822F00802BE
:104754005A60FDF70BFAF86009E0FDF707FA024624
:10476400FB68D31AB3F57A7F01D9032307E07B688A
:104774001B685B6803F00803002BEED00023184687
:104784001037BD4680BD80B584B000AF786000238B
:10479400FB60FDF7EBF9F86009E0FDF7E7F9024685
:1047A400FB68D31AB3F57A7F01D903230FE07B6842
:1047B4001B685B6803F02003002BEED07B681B684A
:1047C4005A687B681B6842F010025A60002318463E
:1047D4001037BD4680BD80B584B000AF786000233B
:1047E400FB607B681B685A687B681B6822F01002B8
:1047F4005A60FDF7BBF9F86009E0FDF7B7F9024626
:10480400FB68D31AB3F57A7F01D9032307E07B68E9
:104814001B685B6803F02003002BEED000231846CE
:104824001037BD4680BD80B582B000AF78607B682C
:10483400002B01D1012376E07B685B6A002B08D151
:104844007B685B68B3F5827F09D07B680022DA61FC
:1048540005E07B6800221A617B6800225A617B684C
:1048640000229A627B6893F85130DBB2002B06D1A8
:104874007B68002283F850207868FCF7E1FD7B68B0
:10488400022283F851207B681B681A687B681B68C6
:1048940022F040021A607B685B6803F482727B68D2
:1048A4009B6803F404431A437B68DB6803F40063E6
:1048B4001A437B681B6903F002031A437B685B6934
:1048C40003F001031A437B689B6903F400731A43E2
:1048D4007B68DB6903F038031A437B681B6A03F0C7
:1048E400800342EA03017B689B6A03F400527B68FD
:1048F4001B680A431A607B689B691A0C7B681B68F7
:1049040002F004025A607B681B68DA697B681B68E2
:1049140022F40062DA617B6800225A657B68012216
:1049240083F85120002318460837BD4680BD80B562
:1049340082B000AF78607B68002B01D1012341E095
:104944007B6893F83D30DBB2002B06D17B680022F4
:1049540083F83C207868FCF7BFFD7B68022283F86B
:104964003D207B681A687B6804331946104600F0C2
:10497400E9FC7B68012283F846207B68012283F8E6
:104984003E207B68012283F83F207B68012283F864
:1049940040207B68012283F841207B68012283F850
:1049A40042207B68012283F843207B68012283F83C
:1049B40044207B68012283F845207B68012283F828
:1049C4003D20002318460837BD4680BD80B485B01D
:1049D40000AF78607B6893F83D30DBB2012B01D0E7
:1049E400012344E07B68022283F83D207B681B6836
:1049F400DA687B681B6842F00102DA607B681B6836
:104A04001D4A934218D07B681B681C4A934213D0FA
:104A14007B681B68B3F1804F0ED07B681B68184A13
:104A2400934209D07B681B68164A934204D07B6882
:104A34001B68154A934211D17B681B689B6803F07D
:104A44000703FB60FB68062B10D07B681B681A68A1
:104A54007B681B6842F001021A6007E07B681B68F0
:104A64001A687B681B6842F001021A60002318462A
:104A74001437BD4680BC7047002C0140003401400F
:104A84000004004000080040000C004080B582B0E3
:104A940000AF78607B68002B01D1012341E07B6883
:104AA40093F83D30DBB2002B06D17B68002283F8FB
:104AB4003C20786800F039F87B68022283F83D20B6
:104AC4007B681A687B6804331946104600F03AFC88
:104AD4007B68012283F846207B68012283F83E200C
:104AE4007B68012283F83F207B68012283F8402001
:104AF4007B68012283F841207B68012283F84220ED
:104B04007B68012283F843207B68012283F84420D8
:104B14007B68012283F845207B68012283F83D20CD
:104B2400002318460837BD4680BD80B483B000AF6B
:104B3400786000BF0C37BD4680BC704780B582B03A
:104B440000AF78607B68002B01D1012341E07B68D2
:104B540093F83D30DBB2002B06D17B68002283F84A
:104B64003C207868FCF7F0FC7B68022283F83D2047
:104B74007B681A687B6804331946104600F0E2FB30
:104B84007B68012283F846207B68012283F83E205B
:104B94007B68012283F83F207B68012283F8402050
:104BA4007B68012283F841207B68012283F842203C
:104BB4007B68012283F843207B68012283F8442028
:104BC4007B68012283F845207B68012283F83D201D
:104BD400002318460837BD4680BD000080B584B068
:104BE40000AF786039603B68002B09D17B6893F88B
:104BF4003E30DBB2012B14BF01230023DBB222E0E1
:104C04003B68042B09D17B6893F83F30DBB2012B5E
:104C140014BF01230023DBB215E03B68082B09D144
:104C24007B6893F84030DBB2012B14BF01230023CF
:104C3400DBB208E07B6893F84130DBB2012B14BF90
:104C440001230023DBB2002B01D0012372E03B6877
:104C5400002B04D17B68022283F83E2013E03B68DA
:104C6400042B04D17B68022283F83F200BE03B68CD
:104C7400082B04D17B68022283F8402003E07B6880
:104C8400022283F841207B681B6801223968184698
:104C940000F020FE7B681B68284A934204D07B689E
:104CA4001B68274A934201D1012300E00023002B13
:104CB40007D07B681B685A6C7B681B6842F400420F
:104CC4005A647B681B681D4A934218D07B681B6832
:104CD4001B4A934213D07B681B68B3F1804F0ED0FC
:104CE4007B681B68174A934209D07B681B68164A85
:104CF400934204D07B681B68144A934211D17B68A9
:104D04001B689B6803F00703FB60FB68062B10D04D
:104D14007B681B681A687B681B6842F001021A6092
:104D240007E07B681B681A687B681B6842F0010215
:104D34001A60002318461037BD4680BD002C014080
:104D4400003401400004004000080040000C004012
:104D540080B584B000AF78607B681B68DB68FB605B
:104D64007B681B681B69BB60BB6803F00203002BF4
:104D740020D0FB6803F00203002B1BD07B681B6868
:104D84006FF002021A617B6801221A777B681B6844
:104D94009B6903F00303002B03D0786800F0B6FA94
:104DA40005E0786800F0A9FA786800F0B8FA7B6842
:104DB40000221A77BB6803F00403002B20D0FB68A1
:104DC40003F00403002B1BD07B681B686FF0040204
:104DD4001A617B6802221A777B681B689B6903F45B
:104DE4004073002B03D0786800F090FA05E07868EF
:104DF40000F083FA786800F092FA7B6800221A7750
:104E0400BB6803F00803002B20D0FB6803F0080301
:104E1400002B1BD07B681B686FF008021A617B684B
:104E240004221A777B681B68DB6903F00303002BF9
:104E340003D0786800F06AFA05E0786800F05DFA5B
:104E4400786800F06CFA7B6800221A77BB6803F07C
:104E54001003002B20D0FB6803F01003002B1BD0A1
:104E64007B681B686FF010021A617B6808221A774E
:104E74007B681B68DB6903F44073002B03D07868FC
:104E840000F044FA05E0786800F037FA786800F03A
:104E940046FA7B6800221A77BB6803F00103002BF3
:104EA4000CD0FB6803F00103002B07D07B681B6860
:104EB4006FF001021A617868FBF7BEFEBB6803F06D
:104EC4008003002B0CD0FB6803F08003002B07D079
:104ED4007B681B686FF080021A61786800F0E4FD5B
:104EE400BB6803F04003002B0CD0FB6803F04003C5
:104EF400002B07D07B681B686FF040021A6178684A
:104F040000F016FABB6803F02003002B0CD0FB68FA
:104F140003F02003002B07D07B681B686FF020028E
:104F24001A61786800F0B7FD00BF1037BD4680BD38
:104F340080B586B000AFF860B9607A600023FB7575
:104F4400FB6893F83C30012B01D1022348E0FB6855
:104F5400012283F83C207B680C2B39D801A252F83B
:104F640023F000BF9D4F0008D54F0008D54F00081F
:104F7400D54F0008AB4F0008D54F0008D54F0008A7
:104F8400D54F0008B94F0008D54F0008D54F000889
:104F9400D54F0008C74F0008FB681B68B96818465E
:104FA40000F056FA17E0FB681B68B968184600F071
:104FB400BFFA10E0FB681B68B968184600F02CFBC8
:104FC40009E0FB681B68B968184600F099FB02E029
:104FD4000123FB7500BFFB68002283F83C20FB7DA6
:104FE40018461837BD4680BD80B586B000AFF8605E
:104FF400B9607A600023FB75FB6893F83C30012BA1
:1050040001D10223AEE0FB68012283F83C207B68D7
:105014000C2B00F29F8001A252F823F05550000897
:105024005951000859510008595100089550000879
:10503400595100085951000859510008D750000827
:1050440059510008595100085951000817510008D6
:10505400FB681B68B968184600F0FAF9FB681B681E
:105064009A69FB681B6842F008029A61FB681B6836
:105074009A69FB681B6822F004029A61FB681B684A
:105084009969BB681A69FB681B680A439A6164E002
:10509400FB681B68B968184600F04AFAFB681B688D
:1050A4009A69FB681B6842F400629A61FB681B689A
:1050B4009A69FB681B6822F480629A61FB681B682A
:1050C4009969BB681B691A02FB681B680A439A61E9
:1050D40043E0FB681B68B968184600F09DFAFB685A
:1050E4001B68DA69FB681B6842F00802DA61FB6836
:1050F4001B68DA69FB681B6822F00402DA61FB684A
:105104001B68D969BB681A69FB681B680A43DA61C2
:1051140023E0FB681B68B968184600F0F1FAFB68E5
:105124001B68DA69FB681B6842F40062DA61FB6899
:105134001B68DA69FB681B6822F48062DA61FB6829
:105144001B68D969BB681B691A02FB681B680A43A0
:10515400DA6102E00123FB7500BFFB68002283F8DB
:105164003C20FB7D18461837BD4680BD80B584B011
:1051740000AF786039600023FB737B6893F83C30A0
:10518400012B01D10223B4E07B68012283F83C2087
:105194007B68022283F83D207B681B689B68BB60A8
:1051A400BB6823F07703BB60BB6823F47F43BB6019
:1051B4007B681B68BA689A603B681B68B3F5005F3C
:1051C4003ED0B3F5005F00F28780B3F5805F00F056
:1051D4008680B3F5805F7FD8702B1AD0702B7BD874
:1051E400602B50D0602B77D8502B3CD0502B73D8E9
:1051F400402B58D0402B6FD8302B64D0302B6BD839
:10520400202B60D0202B67D8002B5CD0102B5AD0D9
:1052140062E07B6818683B6899683B685A683B6839
:10522400DB6800F038FB7B681B689B68BB60BB686D
:1052340043F07703BB607B681B68BA689A604FE0F1
:105244007B6818683B6899683B685A683B68DB6808
:1052540000F021FB7B681B689A687B681B6842F43A
:1052640080429A603CE07B6818683B6859683B68F8
:10527400DB681A4600F098FA7B681B6850211846D0
:1052840000F0EFFA2CE07B6818683B6859683B68CB
:10529400DB681A4600F0B6FA7B681B686021184682
:1052A40000F0DFFA1CE07B6818683B6859683B68CB
:1052B400DB681A4600F078FA7B681B6840211846C0
:1052C40000F0CFFA0CE07B681A683B681B6819464B
:1052D400104600F0C6FA03E00123FB7300E000BFB0
:1052E4007B68012283F83D207B68002283F83C2000
:1052F400FB7B18461037BD4680BD80B483B000AF39
:10530400786000BF0C37BD4680BC704780B483B062
:1053140000AF786000BF0C37BD4680BC704780B4D6
:1053240083B000AF786000BF0C37BD4680BC7047C7
:1053340080B483B000AF786000BF0C37BD4680BC3A
:105344007047000080B485B000AF786039607B6836
:105354001B68FB607B68394A934213D07B68384AE8
:1053640093420FD07B68B3F1804F0BD07B68354AF2
:10537400934207D07B68344A934203D07B68334A14
:10538400934208D1FB6823F07003FB603B685B68C1
:10539400FA681343FB607B68284A934213D07B6806
:1053A400274A93420FD07B68B3F1804F0BD07B68C0
:1053B400244A934207D07B68234A934203D07B68F4
:1053C400224A934208D1FB6823F44073FB603B6894
:1053D400DB68FA681343FB60FB6823F080023B68D8
:1053E4005B691343FB607B68FA681A603B689A68E0
:1053F4007B68DA623B681A687B689A627B680F4A4A
:10540400934203D07B680E4A934203D13B681A69E6
:105414007B681A637B6801225A617B681B6903F00D
:105424000103002B05D07B681B6923F001027B6814
:105434001A6100BF1437BD4680BC7047002C014080
:10544400003401400004004000080040000C00400B
:1054540080B487B000AF786039607B681B6A7B6179
:105464007B681B6A23F001027B681A627B685B68B5
:105474003B617B689B69FB60FB6823F07003FB6006
:10548400FB6823F00303FB603B681B68FA68134363
:10549400FB607B6923F002037B613B689B687A694C
:1054A40013437B617B68204A934203D07B681F4A85
:1054B40093420CD17B6923F008037B613B68DB6872
:1054C4007A6913437B617B6923F004037B617B6806
:1054D400154A934203D07B68144A934211D13B6925
:1054E40023F480733B613B6923F400733B613B68A5
:1054F4005B693A6913433B613B689B693A691343AF
:105504003B617B683A695A607B68FA689A613B68D8
:105514005A687B685A637B687A691A6200BF1C37D1
:10552400BD4680BC704700BF002C014000340140E0
:1055340080B487B000AF786039607B681B6A7B6198
:105544007B681B6A23F010027B681A627B685B68C5
:105554003B617B689B69FB60FB6823F4E043FB6071
:10556400FB6823F44073FB603B681B681B02FA680A
:105574001343FB607B6923F020037B613B689B68DA
:105584001B017A6913437B617B68214A934203D0F0
:105594007B68204A93420DD17B6923F080037B61B1
:1055A4003B68DB681B017A6913437B617B6923F0E9
:1055B40040037B617B68164A934203D07B68154A9B
:1055C400934213D13B6923F480633B613B6923F429
:1055D40000633B613B685B699B003A6913433B6131
:1055E4003B689B699B003A6913433B617B683A695A
:1055F4005A607B68FA689A613B685A687B689A6368
:105604007B687A691A6200BF1C37BD4680BC70474C
:10561400002C01400034014080B487B000AF7860B2
:1056240039607B681B6A7B617B681B6A23F4807228
:105634007B681A627B685B683B617B68DB69FB6043
:10564400FB6823F07003FB60FB6823F00303FB603B
:105654003B681B68FA681343FB607B6923F400739F
:105664007B613B689B681B027A6913437B617B689F
:10567400214A934203D07B68204A93420DD17B692F
:1056840023F400637B613B68DB681B027A69134384
:105694007B617B6923F480637B617B68164A934258
:1056A40003D07B68154A934213D13B6923F480539A
:1056B4003B613B6923F400533B613B685B691B011D
:1056C4003A6913433B613B689B691B013A69134385
:1056D4003B617B683A695A607B68FA68DA613B68C7
:1056E4005A687B68DA637B687A691A6200BF1C3780
:1056F400BD4680BC704700BF002C0140003401400F
:1057040080B487B000AF786039607B681B6A3B6106
:105714007B681B6A23F480527B681A627B685B682F
:105724007B617B68DB69FB60FB6823F4E043FB601F
:10573400FB6823F44073FB603B681B681B02FA6838
:105744001343FB603B6923F400533B613B689B6854
:105754001B033A6913433B617B68114A934203D0AC
:105764007B68104A934209D17B6923F480437B61AF
:105774003B685B699B017A6913437B617B687A6947
:105784005A607B68FA68DA613B685A687B681A6415
:105794007B683A691A6200BF1C37BD4680BC7047FB
:1057A400002C01400034014080B487B000AFF860A1
:1057B400B9607A60FB681B6A7B61FB681B6A23F033
:1057C4000102FB681A62FB689B693B613B6923F039
:1057D400F0033B617B681B013A6913433B617B69BE
:1057E40023F00A037B617A69BB6813437B61FB681E
:1057F4003A699A61FB687A691A6200BF1C37BD4630
:1058040080BC704780B487B000AFF860B9607A603C
:10581400FB681B6A7B61FB681B6A23F01002FB6850
:105824001A62FB689B693B613B6923F470433B61EB
:105834007B681B033A6913433B617B6923F0A00334
:105844007B61BB681B017A6913437B61FB683A691E
:105854009A61FB687A691A6200BF1C37BD4680BC36
:10586400704780B485B000AF786039607B689B680E
:10587400FB60FB6823F07003FB603A68FB6813432A
:1058840043F00703FB607B68FA689A6000BF143733
:10589400BD4680BC704780B487B000AFF860B96083
:1058A4007A603B60FB689B687B617B6923F47F4380
:1058B4007B613B681A027B681A43BB6813437A69AD
:1058C40013437B61FB687A699A6000BF1C37BD464D
:1058D40080BC704780B487B000AFF860B9607A606C
:1058E400BB6803F01F03012202FA03F37B61FB6828
:1058F4001A6A7B69DB431A40FB681A62FB681A6AFE
:10590400BB6803F01F03796801FA03F31A43FB68C9
:105914001A6200BF1C37BD4680BC704780B485B096
:1059240000AF786039607B6893F83C30012B01D17B
:10593400022350E07B68012283F83C207B6802222A
:1059440083F83D207B681B685B68FB607B681B6891
:105954009B68BB60FB6823F07003FB603B681B68BB
:10596400FA681343FB607B681B68FA685A607B68BB
:105974001B681B4A934218D07B681B68194A9342E0
:1059840013D07B681B68B3F1804F0ED07B681B6813
:10599400154A934209D07B681B68144A934204D089
:1059A4007B681B68124A93420CD1BB6823F08003C6
:1059B400BB603B685B68BA681343BB607B681B6869
:1059C400BA689A607B68012283F83D207B680022D4
:1059D40083F83C20002318461437BD4680BC70472A
:1059E400002C014000340140000400400008004045
:1059F400000C004080B485B000AF786039600023AB
:105A0400FB607B6893F83C30012B01D102233DE01D
:105A14007B68012283F83C20FB6823F0FF023B688B
:105A2400DB681343FB60FB6823F440723B689B68AC
:105A34001343FB60FB6823F480623B685B68134399
:105A4400FB60FB6823F400623B681B681343FB6044
:105A5400FB6823F480523B681B691343FB60FB68BB
:105A640023F400523B685B691343FB60FB6823F437
:105A740080423B68DB691343FB607B681B68FA6800
:105A84005A647B68002283F83C20002318461437AC
:105A9400BD4680BC704780B483B000AF786000BF5F
:105AA4000C37BD4680BC704780B483B000AF7860CB
:105AB40000BF0C37BD4680BC704780B582B000AFD4
:105AC40078607B68002B01D1012342E07B6893F866
