:020000040800F2
:1000000000C0002031190008551800085B180008CE
:1000100061180008671800086D180008000000004B
:10002000000000000000000000000000731800083D
:100030007F180008000000008B18000897180008BF
:100040007919000879190008791900087919000848
:100050007919000879190008791900087919000838
:100060007919000879190008791900087919000828
:100070007919000879190008791900087919000818
:100080007919000879190008791900087919000808
:1000900079190008791900087919000879190008F8
:1000A00079190008791900087919000879190008E8
:1000B000A5180008791900087919000879190008AD
:1000C00079190008791900087919000879190008C8
:1000D00079190008791900087919000879190008B8
:1000E00079190008791900087919000879190008A8
:1000F0007919000879190008791900087919000898
:100100007919000879190008791900087919000887
:100110007919000879190008791900087919000877
:100120007919000879190008791900087919000867
:1001300000000000000000000000000000000000BF
:1001400000000000000000000000000000000000AF
:10015000000000000000000000000000000000009F
:10016000000000000000000000000000000000008F
:10017000000000000000000000000000000000007F
:10018000000000000000000000000000000000006F
:10019000000000000000000000000000000000005F
:1001A000000000000000000000000000000000004F
:1001B000000000000000000000000000000000003F
:1001C000000000000000000000000000000000002F
:1001D000000000000000000000000000000000001F
:0401E0005FF8E0F1F3
:1001E40010B5054C237833B9044B13B10448AFF36D
:1001F40000800123237010BD5C000020000000007B
:10020400745C000808B5034B1BB103490348AFF302
:10021400008008BD0000000060000020745C00083D
:10022400034613F8012B002AFBD1181A0138704732
:1002340080B500AF204B214A1A601F4B10225A6030
:100244001D4B00229A601C4B0022DA601A4B0022DC
:100254001A61194B00225A61174B00221A76164B69
:1002640000225A76144B00229A76134B0022DA7637
:10027400114B00221A77104B00225A770E4801F0D6
:10028400DDFB0346002B01D0012313E000F018F836
:10029400094801F097FD0346002B01D0012309E032
:1002A4000221054801F0D2FD0346002B01D00123B1
:1002B40000E00023184680BD780000200064004060
:1002C40080B58AB000AF00237B610023BB610123AA
:1002D400FB6100233B6000237B600023BB600023A1
:1002E400FB6000233B6101233B620E237B623B46A0
:1002F4001946064801F09DFC0346002B01D000F08E
:100304009FFE00BF2837BD4680BD00BF7800002097
:1003140080B582B000AF3B4600221A605A60184B89
:10032400184A1A60164801F0C4FE0346002B01D097
:10033400012320E000233B6000237B603B46002236
:1003440019460F4801F02DFF0346002B01D001236D
:1003540011E03B4610221946094801F022FF0346EA
:10036400002B01D0012306E0002000F00DF810203E
:1003740000F00AF8002318460837BD4680BD00BFC8
:10038400A00000200074004080B582B000AF786007
:100394007968044801F0AFFE034618460837BD46A5
:1003A40080BD00BFA000002080B58AB000AF07F177
:1003B400180300221A605A609A60DA60744B9B69D1
:1003C400734A43F040039361714B9B6903F040030C
:1003D4007B617B696E4B9B696D4A43F010039361AB
:1003E4006B4B9B6903F010033B613B69684B9B6952
:1003F400674A43F004039361654B9B6903F004036C
:10040400FB60FB68624B9B69614A43F0080393619C
:100414005F4B9B6903F00803BB60BB685C4B9B6943
:100424005B4A43F020039361594B9B6903F020031B
:100434007B607B68564B9B69554A43F0010393618B
:10044400534B9B6903F001033B603B6801224FF46B
:100454004051504802F092F800224FF440414D4878
:1004640002F08CF800224FF440714B4802F086F8F9
:1004740000224FF44041494802F080F80122032150
:10048400474802F07BF801228021464802F076F8C2
:10049400012201213F4802F071F800222F213E4839
:1004A40002F06CF800224FF492613C4802F066F8C6
:1004B40000224FF449713A4802F060F80023FB61CE
:1004C40000233B6240F6FE73BB6107F11803194633
:1004D400304801F0BFFE4E23BB6107F118031946F3
:1004E400304801F0B7FE5023BB6107F118031946E9
:1004F400294801F0AFFE41F60803BB6107F1180378
:100504001946264801F0A6FE0123FB6100233B6245
:1005140002237B6240F22F33BB6107F118031946B3
:100524001D4801F097FE40F22733BB6107F1180321
:1005340019461B4801F08EFE4FF20103BB6107F11F
:1005440018031946134801F085FE4CF29043BB6131
:1005540007F118031946114801F07CFE8023BB61A2
:1005640007F1180319460F4801F074FE4FF4807325
:10057400BB610223FB6102237B6207F11803194666
:10058400084801F067FE00BF2837BD4680BD00BFA4
:100594000010024000180140001001400014014006
:1005A400000C01400008014080B500AF134B144A11
:1005B4001A60124B134A5A60104B00229A600F4B78
:1005C4000022DA600D4B4FF480421A610B4B00227B
:1005D4005A610A4B00229A61084B0022DA61074BE8
:1005E40000221A62054801F0FBFF0346002B01D0EC
:1005F400012300E00023184680BD00BFB4000020A2
:1006040000540040A086010080B500AF134B144A8B
:100614001A60124B134A5A60104B00229A600F4B17
:100624000022DA600D4B4FF480421A610B4B00221A
:100634005A610A4B00229A61084B0022DA61074B87
:1006440000221A62054801F0CBFF0346002B01D0BB
:10065400012300E00023184680BD00BF08010020EC
:1006640000580040A086010080B584B000AFF86057
:10067400B9607A607B80FB68BA681A60FB687A6844
:100684005A60FB687A881A81F86800F014F800BF91
:100694001037BD4680BD80B582B000AF78607B68FE
:1006A40058687B681B890122194601F067FF00BF67
:1006B4000837BD4680BD80B582B000AF78607B68E6
:1006C40058687B681B890022194601F057FF00BF58
:1006D4000837BD4680BD80B586B000AFF860B9600C
:1006E4003B601346FB80FB68002B03D0FB681B6850
:1006F400002B01D1012318E0F868FFF7CCFFFB6859
:100704001868FA883B68B96804F0D1FB0346FB75A6
:1007140000BFFB681B681B681B6803F04003402B89
:10072400F7D1F868FFF7C7FFFB7D18461837BD46B9
:1007340080BD000080B500AF0A4B0B4A1A60094B1C
:100744004FF0FF325A60074B00229A60054803F0CD
:100754000BF90346002B01D0012300E000231846C7
:1007640080BD00BF5C0100200028004080B500AFC0
:10077400184B194A1A60174B4FF482725A60154B82
:1007840000229A60134B0022DA60124B00221A6195
:10079400104B00225A610F4B4FF480229A610D4B8B
:1007A4000022DA610B4B00221A620A4B00225A62C1
:1007B400084B00229A62074B0A22DA62054803F0CA
:1007C400DCF90346002B01D0012300E00023184686
:1007D40080BD00BF700100200038004080B596B095
:1007E40000AF07F1300328220021184604F0AEFDC3
:1007F40007F11C0300221A605A609A60DA601A61D9
:100804003B1D00221A605A609A60DA601A615A61CC
:1008140009233B634FF480337B630023BB630123D1
:100824003B640123BB640223FB644FF480333B65C8
:100834004FF480137B6507F13003184602F0BEFACB
:100844000346002B01D000F031F80F23FB61022393
:100854003B6200237B624FF48063BB620023FB6234
:1008640007F11C030121184602F02AFD0346002B60
:1008740001D000F01BF811237B604FF40073BB60C0
:100884004FF48003BB613B1D184602F0DFFE0346B4
:10089400002B01D000F00AF800224FF08061002004
:1008A40002F0F8FD00BF5837BD4680BD80B400AFEC
:1008B40072B600BFFEE7000080B592B000AF07F14A
:1008C400400300221A605A6007F1240300221A60D0
:1008D4005A609A60DA601A615A619A613B1D20225B
:1008E4000021184604F032FD2E4B2F4A1A602D4B7E
:1008F40000225A602B4B00229A602A4B4FF6FF725B
:10090400DA60284B00221A61264B00225A61254BDB
:1009140000229A61234803F063FA0346002B01D0B6
:1009240000F08EFB00233B6400237B6407F140034B
:1009340019461C4804F09CF900237B620023BB6227
:100944000023FB6200233B6300237B630023BB6320
:100954000023FB6307F1240308221946114803F01E
:1009640091FC0346002B01D000F06AFB00237B605E
:100974000023BB600023FB6000233B6100237B61F9
:100984004FF40053BB6100233B623B1D19460548ED
:1009940004F0DAF9034800F073FD00BF4837BD46A0
:1009A40080BD00BFC8010020002C014080B586B086
:1009B40000AF07F1080300221A605A609A60DA60F7
:1009C4003B4600221A605A601B4B4FF080421A606B
:1009D400194B47225A60184B00229A60164B40F27A
:1009E400E732DA60144B00221A61134B00229A6139
:1009F400114803F046F90346002B01D000F020FB18
:100A04004FF48053BB6007F1080319460A4803F00A
:100A140057FD0346002B01D000F012FB00233B607E
:100A240000237B603B461946034804F021F900BFCC
:100A34001837BD4680BD00BF1002002080B58AB0C3
:100A440000AF07F1080300221A605A609A60DA6066
:100A54001A615A619A61284B284A1A60264B00226F
:100A64005A60254B00229A60234B40F60F62DA60ED
:100A7400214B00221A61204B80229A611E4803F008
:100A840007FA0346002B01D000F0DAFA1C4B9B69ED
:100A94001B4A43F001039361194B9B6903F0010363
:100AA4007B607B68174B5B687B627B6A43F0E06327
:100AB4007B627B6A43F480537B62124A7B6A536095
:100AC4006023BB600023FB6000233B610023BB6108
:100AD40007F1080304221946074803F02FFC0346D4
:100AE400002B01D000F0ACFA034800F0C9FC00BFB1
:100AF4002837BD4680BD00BF5802002000080040D2
:100B0400001002400000014080B590B000AF07F132
:100B1400240300221A605A609A60DA601A615A61EA
:100B24009A613B1D20220021184604F00FFC2C4B37
:100B34002C4A1A602A4B00225A60294B00229A60E0
:100B4400274B40F60F62DA60254B00221A61244BD2
:100B540000225A61224B80229A61214803F098F9BD
:100B64000346002B01D000F06BFA60237B62002364
:100B7400BB620023FB6200233B6300237B630023EF
:100B8400BB630023FB6307F12403042219461448C2
:100B940003F0D4FB0346002B01D000F051FA0023EC
:100BA4007B600023BB600023FB6000233B610023C8
:100BB4007B614FF40053BB614FF480433B623B1DA8
:100BC4001946074804F0C0F80346002B01D000F092
:100BD40037FA034800F054FC00BF4037BD4680BDDF
:100BE400A00200200034014080B485B000AFF8605A
:100BF400B9607A60BB68002B04D1FB681B687A6813
:100C04005A6313E0BB68042B04D1FB681A687B6841
:100C140093630BE0BB68082B04D1FB681A687B68FC
:100C2400D36303E0FB681A687B68136400BF14375E
:100C3400BD4680BC7047000080B483B000AF7860CC
:100C44007B681B68B3F1804F0ED10A4B1B680133DC
:100C5400084A1360074B1B68632B05D9054B002218
:100C64001A60054B01221A7000BF0C37BD4680BCC8
:100C7400704700BFEC020020E802002080B500AFFE
:100C8400114B124A1A60104B4FF4E1325A600E4B6A
:100C940000229A600C4B0022DA600B4B00221A618E
:100CA400094B0C225A61084B00229A61064B002220
:100CB400DA61054804F0ABF80346002B01D000F0DC
:100CC400BFF900BF80BD00BFF00200200038014022
:100CD40080B500AF114B124A1A60104B4FF4E13249
:100CE4005A600E4B00229A600C4B0022DA600B4BC8
:100CF40000221A61094B0C225A61084B00229A61A6
:100D0400064B0022DA61054804F081F80346002B03
:100D140001D000F095F900BF80BD00BF380300206A
:100D24000044004080B500AF114B124A1A60104BCA
:100D34004FF416525A600E4B00229A600C4B00225C
:100D4400DA600B4B00221A61094B0C225A61084BE2
:100D540000229A61064B0022DA61054804F057F834
:100D64000346002B01D000F06BF900BF80BD00BF2B
:100D7400800300200048004080B500AF114B124AA8
:100D84001A60104B4FF4E1325A600E4B00229A6005
:100D94000C4B0022DA600B4B00221A61094B0C2227
:100DA4005A61084B00229A61064B0022DA61054819
:100DB40004F02DF80346002B01D000F041F900BFE8
:100DC40080BD00BFC8030020004C004080B500AFC8
:100DD400114B124A1A60104B4FF4E1325A600E4B19
:100DE40000229A600C4B0022DA600B4B00221A613D
:100DF400094B0C225A61084B00229A61064B0022CF
:100E0400DA61054804F003F80346002B01D000F032
:100E140017F900BF80BD00BF10040020005000403F
:100E240080B500AF0D4B0E4A1A600C4B08221A71A4
:100E34000A4B02229A71094B00229A72074B002234
:100E4400DA72064B00221A73044801F0B5FE034619
:100E5400002B01D000F0F4F800BF80BD580400203E
:100E6400005C004080B58CB000AF00F085FDFFF75A
:100E7400B5FCFFF799FAFFF75DFCFFF749FAFFF7B6
:100E840093FBFFF7C1FBFFF771FCFFF715FDFFF7BD
:100E94008DFDFFF739FEFFF7F1FEFFF719FFFFF7AE
:100EA40041FFFFF769FFFFF791FFFFF7C1F9FFF774
:100EB400C5FDFFF7B5FF4FF48063544A54495548C4
:100EC400FFF7D2FB01224FF48061504801F056FB3A
:100ED40000224FF48071504801F050FB00224FF47F
:100EE40080414A4801F04AFB01224FF400514B482B
:100EF40001F044FB01224FF48051484801F03EFBCD
:100F040000224FF40041454801F038FB00224FF421
:100F14008041424801F032FB0421414803F008F8C3
:100F24000421404803F004F83E4B1B685A6C3D4BC7
:100F34001B6842F400425A6401224FF400713A489B
:100F440001F01CFB00224FF48071374801F016FBBE
:100F5400364802F0E5FE364B1B78DBB2012BFAD1A2
:100F6400334B00221A70002387F82F300123BB85EE
:100F740026E0BB8D5B0099B2022302222D4801F0CA
:100F840073FC034687F8233097F82330002B14D1E1
:100F9400BA8D3B462849184604F0B8F93B46184632
:100FA400FFF73EF903469AB239464FF4FA731948EB
:100FB400FFF791FB012387F82F30BB8D0133BB85ED
:100FC400BB8D7F2BD5D997F82F30002B0BD11B4B22
:100FD400BB62B86AFFF724F903469AB26423B96A7C
:100FE4000C48FFF778FB4FF434737B627A6A042170
:100FF4000B48FFF7F9FD7A6A04210A48FFF7F4FD6C
:101004000121094801F0D2FAA5E700BF001401400C
:101014008003002030070020001001400018014028
:1010240058020020A0020020000C01401002002001
:10103400E8020020080100208C5C00089C5C000889
:1010440080B400AF72B600BFFEE7000080B485B084
:1010540000AF134B9B69124A43F001039361104B99
:101064009B6903F00103BB60BB680D4BDB690C4A51
:1010740043F08053D3610A4BDB6903F080537B60F8
:101084007B68084B5B68FB60FB6823F0E063FB60F4
:10109400044AFB68536000BF1437BD4680BC7047E8
:1010A400001002400000014080B58AB000AF7860B3
:1010B40007F1140300221A605A609A60DA607B68B0
:1010C4001B68244A934241D1234BDB69224A43F0F3
:1010D4000073D361204BDB6903F000733B613B6910
:1010E4001D4B9B691C4A43F0200393611A4B9B6977
:1010F40003F02003FB60FB6801237B610023BB61D9
:101104000023FB6107F114031946144801F0A2F807
:1011140002237B610223BB6103233B6207F11403B7
:1011240019460E4801F096F80D4B5B687B627B6AAA
:1011340023F4C0437B627B6A43F0E0637B627B6A97
:1011440043F4C0437B62064A7B6A536000BF28377E
:10115400BD4680BD00640040001002400014014000
:101164000000014080B588B000AF786007F110033B
:1011740000221A605A609A60DA607B681B68144A1D
:10118400934221D1134BDB69124A43F00053D361DC
:10119400104BDB6903F00053FB60FB680D4B9B694C
:1011A4000C4A43F0040393610A4B9B6903F0040364
:1011B400BB60BB6830233B6103237B6107F11003F1
:1011C4001946054801F046F800BF2037BD4680BDEA
:1011D40000740040001002400008014080B58AB04D
:1011E40000AF786007F1180300221A605A609A6011
:1011F400DA607B681B682B4A934224D12A4B9B6993
:10120400294A43F008039361274B9B6903F00803C1
:101214007B617B69C023BB611223FB6103237B6277
:1012240007F118031946214801F014F81E4BDB6935
:101234001D4A43F40013D3611B4BDB6903F4001311
:101244003B613B6929E07B681B68194A934224D1BE
:10125400154B9B69144A43F008039361124B9B6935
:1012640003F00803FB60FB684FF44063BB61122387
:10127400FB6103237B6207F1180319460B4800F056
:10128400E9FF094BDB69084A43F48003D361064B49
:10129400DB6903F48003BB60BB6800BF2837BD462D
:1012A40080BD00BF0054004000100240000C01400B
:1012B4000058004080B584B000AF78607B681B683C
:1012C4000B4A934210D101F06DFD0A4BDB69094AC8
:1012D40043F00063D361074BDB6903F00063FB60F9
:1012E400FB68054B01221A6000BF1037BD4680BD64
:1012F40000280040001002403C04424280B588B0FF
:1013040000AF786007F1100300221A605A609A60F7
:10131400DA607B681B681C4A934231D11B4BDB6942
:101324001A4A43F48043D361184BDB6903F48043C6
:10133400FB60FB68154B9B69144A43F008039361F7
:10134400124B9B6903F00803BB60BB684FF4304346
:101354003B6102237B610323FB6107F11003194600
:101364000B4800F077FF4FF480433B6100237B611F
:101374000023BB6107F110031946054800F06AFF1A
:1013840000BF2037BD4680BD003800400010024039
:10139400000C014080B584B000AF78607B681B68A6
:1013A400164A93420CD1164B9B69154A43F40063C9
:1013B4009361134B9B6903F40063FB60FB6818E0C3
:1013C4007B681B68B3F1804F13D10D4BDB690C4A6A
:1013D40043F00103D3610A4BDB6903F00103BB60F3
:1013E400BB68002201211C2000F02DFE1C2000F00F
:1013F40046FE00BF1037BD4680BD00BF002C014033
:101404000010024080B487B000AF78607B681B682E
:10141400184A934218D1184B9B69174A43F00103A9
:101424009361154B9B6903F001037B617B69124B4C
:10143400DB69114A43F00403D3610F4BDB6903F00A
:1014440004033B613B6910E07B681B680B4A9342D1
:101454000BD1094B9B69084A43F400539361064B33
:101464009B6903F40053FB60FB6800BF1C37BD4657
:1014740080BC704700080040001002400034014066
:1014840080B58AB000AF786007F1140300221A60B7
:101494005A609A60DA607B681B68264A934227D1B7
:1014A400254B9B69244A43F020039361224B9B699B
:1014B40003F020033B613B694FF400537B6102233B
:1014C400BB6102233B6207F1140319461B4800F079
:1014D400C1FE1B4B5B687B627B6A43F0E0637B620B
:1014E4007B6A43F480537B62154A7B6A53601CE039
:1014F4007B681B68134A934217D10F4B9B690E4AB2
:1015040043F0100393610C4B9B6903F01003FB60E1
:10151400FB6880237B610223BB6102233B6207F1EA
:1015240014031946084800F095FE00BF2837BD464D
:1015340080BD00BF000800400010024000140140BC
:1015440000000140003401400010014080B594B017
:1015540000AF786007F1380300221A605A609A607D
:10156400DA607B681B68A14A934232D1A04BDB69E5
:101574009F4A43F40023D3619D4BDB6903F40023AA
:101584007B637B6B9A4B9B69994A43F0100393618D
:10159400974B9B6903F010033B633B6B4FF48063F1
:1015A400BB630223FB6303237B6407F138031946FF
:1015B400904800F04FFE4FF40063BB630023FB63CD
:1015C40000233B6407F1380319468A4800F042FEC1
:1015D40007E17B681B68884A93423DD1844BDB69F1
:1015E400834A43F48013D361814BDB6903F4801392
:1015F400FB62FB6A7E4B9B697D4A43F01003936157
:101604007B4B9B6903F01003BB62BB6A784B9B69FD
:10161400774A43F020039361754B9B6903F02003E1
:101624007B627B6A4FF48053BB630223FB63032317
:101634007B6407F1380319466E4800F00BFE04235F
:10164400BB630023FB6300233B6407F138031946A3
:101654006A4800F0FFFDC4E07B681B68684A934257
:1016640032D1634B9B69624A43F480439361604B7C
:101674009B6903F480433B623B6A5D4B9B695C4A14
:1016840043F0040393615A4B9B6903F00403FB6129
:10169400FB694FF40073BB630223FB6303237B6486
:1016A40007F138031946574800F0D4FD4FF480631E
:1016B400BB630023FB6300233B6407F13803194633
:1016C400504800F0C7FD8CE07B681B684E4A93428B
:1016D4003ED1474BDB69464A43F40033D361444B64
:1016E400DB6903F40033BB61BB69414B9B69404A2E
:1016F40043F0200393613E4B9B6903F020037B611D
:101704007B692023BB630223FB6303237B6407F110
:1017140038031946394800F09DFD4023BB6300237C
:10172400FB6300233B6407F138031946334800F098
:1017340091FD364B5B68BB64BB6C43F0E063BB64F8
:10174400BB6C43F00803BB64304ABB6C536048E095
:101754007B681B682E4A934243D1254BDB69244A9C
:1017640043F48023D361224BDB6903F480233B6180
:101774003B691F4B9B691E4A43F0200393611C4B3A
:101784009B6903F02003FB60FB684FF48073BB6329
:101794000223FB6303237B6407F1380319461748CC
:1017A40000F058FD4FF40073BB630023FB63002378
:1017B4003B6407F138031946104800F04BFD134B06
:1017C4005B68FB64FB6C23F03003FB64FB6C43F04D
:1017D400E063FB64FB6C43F03003FB640B4AFB6C7B
:1017E400536000BF5037BD4680BD00BF004C004071
:1017F400001002400010014000500040001401405D
:10180400003801400008014000440040000001404D
:101814000048004080B485B000AF78607B681B68E6
:10182400094A93420BD1094BDB69084A43F400038C
:10183400D361064BDB6903F40003FB60FB6800BF64
:101844001437BD4680BC7047005C00400010024065
:1018540080B400AFFEE780B400AFFEE780B400AF11
:10186400FEE780B400AFFEE780B400AFFEE780B4CB
:1018740000AF00BFBD4680BC704780B400AF00BF5E
:10188400BD4680BC704780B400AF00BFBD4680BC7D
:10189400704780B500AF00F0B5F800BF80BD000010
:1018A40080B500AF024802F0FDFB00BF80BD00BF61
:1018B4001002002080B586B000AF7860144A154B42
:1018C400D31A7B617B693B61134B1B68002B02D1EC
:1018D400114B124A1A60104B1A687B6813443A6918
:1018E4009A4207D203F03AFD03460C221A604FF0E5
:1018F400FF3309E0084B1B68FB60074B1A687B68E1
:101904001344054A1360FB6818461837BD4680BD6A
:1019140000C00020000400003C07002090080020C4
:1019240080B400AF00BFBD4680BC7047FFF7F8FF2E
:101934000B480C490C4A002302E0D458C450043329
:10194400C4188C42F9D3094A094C002301E01360FE
:101954000432A242FBD303F007FDFFF783FA70477A
:10196400000000205C000020285D00085C000020CE
:101974008C080020FEE7000080B500AF084B1B6810
:10198400074A43F010031360032000F051FB0F20BB
:1019940000F008F8FFF75AFB0023184680BD00BF8B
:1019A4000020024080B582B000AF7860124B1A6804
:1019B400124B1B7819464FF47A73B3FBF1F3B2FB65
:1019C400F3F3184600F069FB0346002B01D0012312
:1019D4000EE07B680F2B0AD8002279684FF0FF30A5
:1019E40000F031FB064A7B681360002300E001230A
:1019F40018460837BD4680BD0000002008000020BE
:101A04000400002080B400AF054B1B781A46054B38
:101A14001B681344034A136000BFBD4680BC704773
:101A2400080000204007002080B400AF024B1B6870
:101A34001846BD4680BC70474007002080B584B07E
:101A440000AF78607B68002B01D10123EDE07B6857
:101A540093F82030DBB2002B02D17868FFF724FB27
:101A64007B681B681A687B681B6842F001021A6075
:101A7400FFF7DAFFF86012E0FFF7D6FF0246FB68D3
:101A8400D31A0A2B0BD97B685B6A43F400327B6858
:101A94005A627B68052283F820200123C5E07B6815
:101AA4001B685B6803F00103002BE5D07B681B68AF
:101AB4001A687B681B6822F002021A60FFF7B4FF01
:101AC400F86012E0FFF7B0FF0246FB68D31A0A2B56
:101AD4000BD97B685B6A43F400327B685A627B688B
:101AE400052283F8202001239FE07B681B685B6844
:101AF40003F00203002BE5D17B681B7E012B08D188
:101B04007B681B681A687B681B6842F080021A6055
:101B140007E07B681B681A687B681B6822F08002F8
:101B24001A607B685B7E012B08D17B681B681A688E
:101B34007B681B6842F040021A6007E07B681B6800
:101B44001A687B681B6822F040021A607B689B7EDF
:101B5400012B08D17B681B681A687B681B6842F0FC
:101B640020021A6007E07B681B681A687B681B68A0
:101B740022F020021A607B68DB7E012B08D17B688F
:101B84001B681A687B681B6822F010021A6007E061
:101B94007B681B681A687B681B6842F010021A6035
:101BA4007B681B7F012B08D17B681B681A687B68E4
:101BB4001B6842F008021A6007E07B681B681A6819
:101BC4007B681B6822F008021A607B685B7F012B2C
:101BD40008D17B681B681A687B681B6842F00402A2
:101BE4001A6007E07B681B681A687B681B6822F030
:101BF40004021A607B689A687B68DB681A437B6816
:101C04001B691A437B685B6942EA03017B685B6872
:101C14005A1E7B681B680A43DA617B6800225A6299
:101C24007B68012283F82020002318461037BD4624
:101C340080BD80B487B000AF786039607B681B6872
:101C44007B617B6893F82030FB74FB7C012B03D011
:101C5400FB7C022B40F0AA807B69D3F8003243F06E
:101C640001027B69C3F800223B685B6903F01F0330
:101C7400012202FA03F3FB607B69D3F81C22FB68A0
:101C8400DB431A407B69C3F81C223B68DB69002BE9
:101C940023D17B69D3F80C22FB68DB431A407B69B0
:101CA400C3F80C223B68DB6819043B685B689BB291
:101CB4003A68526919437B69483243F832103B68E9
:101CC4009B6819043B681B689AB23B685B690A43CA
:101CD40079694833DB000B445A603B68DB69012BAC
:101CE40022D17B69D3F80C22FB681A437B69C3F8C1
:101CF4000C223B681B6819043B685B689BB23A681A
:101D0400526919437B69483243F832103B689B6837
:101D140019043B68DB689AB23B685B690A437969DA
:101D24004833DB000B445A603B689B69002B09D1A4
:101D34007B69D3F80422FB68DB431A407B69C3F850
:101D4400042207E07B69D3F80422FB681A437B6909
:101D5400C3F804223B681B69002B09D17B69D3F8C3
:101D64001422FB68DB431A407B69C3F8142207E0A2
:101D74007B69D3F81422FB681A437B69C3F81422E5
:101D84003B681B6A012B07D17B69D3F81C22FB68D3
:101D94001A437B69C3F81C227B69D3F8003223F011
:101DA40001027B69C3F80022002306E07B685B6ABA
:101DB40043F480227B685A62012318461C37BD46CF
:101DC40080BC704780B584B000AF78607B6893F8BE
:101DD4002030DBB2012B2ED17B68022283F8202035
:101DE4007B681B681A687B681B6822F001021A6012
:101DF400FFF71AFEF86012E0FFF716FE0246FB68D2
:101E0400D31A0A2B0BD97B685B6A43F400327B68D4
:101E14005A627B68052283F82020012312E07B6844
:101E24001B685B6803F00103002BE5D17B6800228B
:101E34005A62002306E07B685B6A43F400227B68F5
:101E44005A62012318461037BD4680BD80B485B060
:101E540000AF786039607B6893F82030FB73FB7BBC
:101E6400012B02D0FB7B022B09D17B681B685969CB
:101E74007B681B683A680A435A61002306E07B6862
:101E84005B6A43F480227B685A6201231846143744
:101E9400BD4680BC7047000080B485B000AF786058
:101EA4007B6803F00703FB600C4BDB68BB60BA681C
:101EB4004FF6FF031340BB60FB681A02BB68134371
:101EC40043F0BF6343F40033BB60044ABB68D36090
:101ED40000BF1437BD4680BC704700BF00ED00E072
:101EE40080B400AF044BDB681B0A03F007031846F9
:101EF400BD4680BC704700BF00ED00E080B483B0F5
:101F040000AF0346FB7197F90730002B0BDBFB791D
:101F140003F01F02064997F907305B09012000FA14
:101F240002F241F8232000BF0C37BD4680BC704745
:101F340000E100E080B483B000AF03463960FB7178
:101F440097F90730002B0ADB3B68DAB20C4997F9A2
:101F540007301201D2B20B4483F800230AE03B6835
:101F6400DAB20849FB7903F00F03043B1201D2B241
:101F74000B441A7600BF0C37BD4680BC704700BFC7
:101F840000E100E000ED00E080B489B000AFF8604B
:101F9400B9607A60FB6803F00703FB61FB69C3F176
:101FA4000703042B28BF0423BB61FB690433062BFE
:101FB40002D9FB69033B00E000237B614FF0FF3251
:101FC400BB6902FA03F3DA43BB681A407B699A409F
:101FD4004FF0FF317B6901FA03F3D9437B680B406F
:101FE400134318462437BD4680BC704780B582B081
:101FF40000AF78607B68013BB3F1807F01D301239C
:102004000FE00A4A7B68013B53600F214FF0FF3019
:10201400FFF790FF054B00229A60044B07221A60D9
:10202400002318460837BD4680BD00BF10E000E01D
:1020340080B582B000AF78607868FFF72DFF00BFED
:102044000837BD4680BD80B586B000AF0346B96091
:102054007A60FB7300237B61FFF742FF78617A6843
:10206400B9687869FFF790FF024697F90F30114677
:102074001846FFF75FFF00BF1837BD4680BD80B527
:1020840082B000AF0346FB7197F907301846FFF79B
:1020940035FF00BF0837BD4680BD80B582B000AFB4
:1020A40078607868FFF7A2FF034618460837BD46F4
:1020B40080BD80B582B000AF78607B68002B01D111
:1020C400012314E07B681B79DBB2002B05D17B680C
:1020D40000225A717868FFF745F87B6802221A716A
:1020E4007B6800221A617B6801221A71002318465A
:1020F4000837BD4680BD80B483B000AF78603960D6
:102104007B68002B01D1012346E07B685B79012BBE
:1021140001D1022340E07B6801225A717B680222CC
:102124001A717B681B6819683B6803F0100301226D
:102134009A407B681B680A431A603B68002B0FD1E6
:102144007B681B681B6803F03C033C2B1DD17B6838
:102154001B685A687B681B6842F001025A6014E0ED
:102164007B681B681B6803F470123B6803F0100360
:102174003C2101FA03F39A4207D17B681B685A6831
:102184007B681B6842F002025A607B6801221A7164
:102194007B6800225A71002318460C37BD4680BC68
:1021A400704780B489B000AFF860B9607A600023EA
:1021B400FB77FB68002B02D0BB68002B01D1012305
:1021C40042E0FB685B79012B01D102233CE0FB6810
:1021D40001225A71FB6802221A71FB681B681B6892
:1021E400BB617B6803F0100340F6FE7202FA03F34E
:1021F400DB43BA691340BB61BB681A68BB685B68A0
:1022040013437B617B6803F010037A6902FA03F3DA
:10221400BA691343BB61FB681B68BA691A60FB683F
:102224001B6819687B6803F01003C02202FA03F3E9
:10223400DA43FB681B680A401A60FB6801221A71C2
:10224400FB6800225A71FB7F18462437BD4680BCC8
:102254007047000080B48BB000AF78603960002311
:102264007B6200233B6279E101227B6A02FA03F379
:10227400FB613B681B68FA691340BB61BA69FB697F
:102284009A4240F068813B685B68964A93425ED00C
:10229400944A934275D8944A934258D0924A9342AE
:1022A4006FD8924A934252D0904A934269D8904A46
:1022B40093424CD08E4A934263D88E4A934246D07E
:1022C4008C4A93425DD8122B2AD8122B59D801A2DA
:1022D40052F823F0532300082D2300083F2300085D
:1022E4008123000887230008872300088723000828
:1022F4008723000887230008872300088723000812
:102304008723000887230008872300088723000801
:102314008723000887230008352300084923000881
:10232400754A934213D02CE03B68DB683B6229E09A
:102334003B68DB6804333B6224E03B68DB680833BA
:102344003B621FE03B68DB680C333B621AE03B688E
:102354009B68002B02D104233B6213E03B689B681B
:10236400012B05D108233B627B68FA691A6109E0F5
:1023740008233B627B68FA695A6103E000233B62ED
:1023840000E000BFBB69FF2B01D87B6801E07B68DC
:1023940004337B61BB69FF2B02D87B6A9B0002E09C
:1023A4007B6A083B9B003B617B691A680F213B6990
:1023B40001FA03F3DB431A40396A3B6901FA03F378
:1023C4001A437B691A603B685B6803F08053002BF7
:1023D40000F0C180494B9B69484A43F00103936173
:1023E400464B9B6903F00103BB60BB68444A7B6AAC
:1023F4009B08023352F82330FB607B6A03F003032B
:102404009B000F2202FA03F3DB43FA681340FB60DC
:102414007B683C4A93421FD07B683B4A934219D065
:102424007B683A4A934213D07B68394A93420DD071
:102434007B68384A934207D07B68374A934201D17C
:1024440005230AE0062308E0042306E0032304E04E
:10245400022302E0012300E000237A6A02F003026F
:1024640092009340FA681343FB6025497B6A9B08FA
:102474000233FA6841F823203B685B6803F4801355
:10248400002B06D0254B9A682449BB6913438B6003
:1024940006E0224B9A68BB69DB43204913408B60FA
:1024A4003B685B6803F40013002B06D01B4BDA680F
:1024B4001A49BB691343CB6006E0184BDA68BB6961
:1024C400DB4316491340CB603B685B6803F400337D
:1024D400002B25D0114B5A681049BB6913434B603C
:1024E40025E000BF0000321000003110000022106F
:1024F4000000211000001210000011100010024012
:102504000000014000080140000C0140001001409F
:102514000014014000180140001C01400004014067
:10252400154B5A68BB69DB43134913404B603B6846
:102534005B6803F48033002B06D00F4B1A680E49F6
:10254400BB6913430B6006E00B4B1A68BB69DB43A2
:10255400094913400B607B6A01337B623B681A684C
:102564007B6A22FA03F3002B7FF47EAE00BF00BF28
:102574002C37BD4680BC70470004014080B483B052
:1025840000AF78600B467B8013467B707B78002B12
:1025940003D07A887B681A6103E07B881A047B681D
:1025A4001A6100BF0C37BD4680BC704780B485B04B
:1025B40000AF78600B467B807B68DB68FB607A88C1
:1025C400FB6813401A04FB68D9437B880B401A4309
:1025D4007B681A6100BF1437BD4680BC7047000099
:1025E40080B584B000AF78607B68002B01D10123F3
:1025F4002BE17B6893F83D30DBB2002B06D17B687E
:10260400002283F83C207868FEF7E8FD7B682422EA
:1026140083F83D207B681B681A687B681B6822F07E
:1026240001021A607B681B681A687B681B6842F4A5
:1026340000421A607B681B681A687B681B6822F476
:1026440000421A6000F0BCFFF8607B685B68814A56
:10265400934207D8FB68804A934294BF0123002326
:10266400DBB206E0FB687D4A934294BF012300235A
:10267400DBB2002B01D00123E7E0FB68784AA2FB20
:1026840003239B0CBB607B681B685B6823F03F01E2
:102694007B681B68BA680A435A607B681B681B6ABC
:1026A40023F03F017B685B686A4A934202D8BB68A7
:1026B400013309E0BB684FF4967202FB03F3694AE5
:1026C400A2FB03239B0901337A6812680B4313624C
:1026D4007B681B68DB6923F44F4222F0FF027B68AE
:1026E4005B685C498B4219D8FB68591E7B685B6840
:1026F4005B00B1FBF3F3591C40F6FC730B40002B59
:102704000AD0FB68591E7B685B685B00B1FBF3F37E
:102714000133C3F30B0351E004234FE07B689B6850
:10272400002B11D1FB68581E7B6859680B465B006F
:102734000B44B0FBF3F30133C3F30B03002B0CBFC7
:1027440001230023DBB212E0FB68581E7B68596842
:102754000B469B000B4499000B44B0FBF3F301338D
:10276400C3F30B03002B0CBF01230023DBB2002BAC
:1027740001D0012322E07B689B68002B0ED1FB680B
:10278400581E7B6859680B465B000B44B0FBF3F39F
:102794000133C3F30B0343F400430FE0FB68581EFB
:1027A4007B6859680B469B000B4499000B44B0FBB3
:1027B400F3F30133C3F30B0343F44043796809682B
:1027C4001343CB617B681B681B6823F0C0017B68E3
:1027D400DA697B681B6A1A437B681B680A431A60C0
:1027E4007B681B689B6823F4034323F0FF037A6828
:1027F40011697A68D26811437A6812680B4393604E
:102804007B681B68DB6823F0FF017B685A697B687F
:102814009B691A437B681B680A43DA607B681B6800
:102824001A687B681B6842F001021A607B68002208
:102834001A647B68202283F83D207B6800221A6397
:102844007B68002283F83E20002318461037BD46DB
:1028540080BD00BFA08601007F841E00FF083D00EC
:1028640083DE1B43D34D621080B58AB002AFF8609B
:102874007A603B600B467B81FFF7D6F8F861002352
:10288400BB61FB6893F83D30DBB2202B40F0118133
:10289400FB690093192301228849F86800F012F9B2
:1028A4000346002B01D0022304E1FB6893F83C307B
:1028B400012B01D10223FDE0FB68012283F83C20B7
:1028C400FB681B681B6803F00103012B07D0FB683E
:1028D4001B681A68FB681B6842F001021A60FB68F7
:1028E4001B681A68FB681B6822F400621A60FB68A4
:1028F400242283F83D20FB6800221A64FB68704A96
:10290400DA62FB681B681A68FB681B6842F4807211
:102914001A60FB6900933B6800224FF00111F868CC
:1029240000F0D0F80346002B0DD0FB681B681B6831
:1029340003F48073B3F5807F03D1FB684FF4007216
:102944001A640323B6E07B89DBB21A46FB681B6872
:1029540002F0FE021A61FFF767F8F861FB681B6872
:102964005B6903F00203022B0CBF01230023DBB2DB
:10297400FB75FB681B685B6903F48063B3F5806FC8
:102984000CBF01230023DBB2BB7525E0FFF74CF835
:102994000246FB69D31A3A689A4202D33B68002B79
:1029A40003D1FB68A02283F83D20FB681B685B69A8
:1029B40003F00203022B0CBF01230023DBB2FB75DF
:1029C400FB681B685B6903F48063B3F5806F0CBF1D
:1029D40001230023DBB2BB75FB6893F83D30DBB207
:1029E400A02B05D0FB7D002B02D1BB7D002BCDD0CD
:1029F400FB68202283F83D20FB681B685B6903F0B9
:102A04000203022B29D1FB681B681A68FB681B6848
:102A140042F400721A6000233B61FB681B685B6927
:102A24003B61FB681B689B693B613B69FB690093E5
:102A3400192301222149F86800F044F80346002BC9
:102A440001D0012336E0FB68202283F83D20FB6897
:102A5400002283F83C2000232CE0FB681B681A68E2
:102A6400FB681B6842F400721A60FB681B686FF411
:102A740080625A61FB690093192301220F49F868A7
:102A840000F020F80346002B01D0012312E0BB69BB
:102A94000133BB61BA697B689A42FFF432AFFB68C9
:102AA400202283F83D20FB68002283F83C20012388
:102AB40000E0022318462037BD4680BD0200100006
:102AC4000000FFFF80B584B000AFF860B9603B60E0
:102AD4001346FB7148E03B68B3F1FF3F44D0FEF777
:102AE400A3FF0246BB69D31A3A689A4202D33B68F1
:102AF400002B39D1BB681B0CDBB2012B0DD1FB6859
:102B04001B685B69DA43BB6813409BB2002B0CBFA4
:102B140001230023DBB21A460CE0FB681B689B69A7
:102B2400DA43BB6813409BB2002B0CBF0123002384
:102B3400DBB21A46FB799A4216D1FB6800221A636B
:102B4400FB68202283F83D20FB68002283F83E20A6
:102B5400FB681B6C43F02002FB681A64FB680022CC
:102B640083F83C20012323E0BB681B0CDBB2012B60
:102B74000DD1FB681B685B69DA43BB6813409BB2E9
:102B8400002B0CBF01230023DBB21A460CE0FB68C8
:102B94001B689B69DA43BB6813409BB2002B0CBFD4
:102BA40001230023DBB21A46FB799A4293D0002317
:102BB40018461037BD4680BD80B584B000AF78603C
:102BC4007B68002B01D10123E8E07B6893F8913204
:102BD400DBB2002B06D17B68002283F89022786850
:102BE400FEF718FE7B68032283F891227B6800229B
:102BF4005A717B681B68184602F03BFB7B681868B7
:102C04007B6804330ECB02F027FB0346002B05D070
:102C14007B68022283F891220123BFE07B681B6852
:102C24000021184602F03FFB0346002B05D07B68C9
:102C3400022283F891220123B0E00023FB733EE0DB
:102C4400FA7B796813469B001344DB000B44113371
:102C540001221A70FA7B796813469B001344DB0047
:102C64000B441033FA7B1A70FA7B796813469B0085
:102C74001344DB000B44133300221A70FA7B796887
:102C840013469B001344DB000B44203300221A60DC
:102C9400FA7B796813469B001344DB000B4424330E
:102CA40000221A60FB7B79685A1C13469B0013446C
:102CB400DB000B4400221A60FB7B0133FB737B684F
:102CC4001B79FA7B9A42BBD30023FB7344E0FA7B63
:102CD400796813469B001344DB000B4403F2511341
:102CE40000221A70FA7B796813469B001344DB00B8
:102CF4000B4403F5A873FA7B1A70FA7B79681346C0
:102D04009B001344DB000B4403F2531300221A709C
:102D1400FA7B796813469B001344DB000B4403F5EC
:102D2400B07300221A60FA7B796813469B0013443F
:102D3400DB000B4403F5B27300221A60FA7B796856
:102D440013469B001344DB000B4403F5B4730022C9
:102D54001A60FB7B0133FB737B681B79FA7B9A4215
:102D6400B5D37B6818687B6804330ECB02F0A7FAEE
:102D74000346002B05D07B68022283F891220123AD
:102D84000CE07B6800225A737B68012283F891224D
:102D94007B681B68184602F0AFFA00231846103708
:102DA400BD4680BD80B400AF034B01221A6000BF52
:102DB400BD4680BC704700BF20000E4280B586B07F
:102DC40000AF78607B68002B01D1012372E27B683D
:102DD4001B6803F00103002B00F08780924B5B68B3
:102DE40003F00C03042B0CD08F4B5B6803F00C0333
:102DF400082B12D18C4B5B6803F48033B3F5803F0E
:102E04000BD1894B1B6803F40033002B6CD07B6817
:102E14005B68002B68D101234CE27B685B68B3F5E7
:102E2400803F06D1804B1B687F4A43F48033136094
:102E34002EE07B685B68002B0CD17B4B1B687A4AC5
:102E440023F480331360784B1B68774A23F4802380
:102E540013601DE07B685B68B3F5A02F0CD1724B47
:102E64001B68714A43F4802313606F4B1B686E4ADE
:102E740043F4803313600BE06B4B1B686A4A23F402
:102E840080331360684B1B68674A23F48023136004
:102E94007B685B68002B13D0FEF7C6FD386108E041
:102EA400FEF7C2FD02463B69D31A642B01D9032302
:102EB40000E25D4B1B6803F40033002BF0D014E0F8
:102EC400FEF7B2FD386108E0FEF7AEFD02463B694D
:102ED400D31A642B01D90323ECE1534B1B6803F48D
:102EE4000033002BF0D100E000BF7B681B6803F0C7
:102EF4000203002B63D04C4B5B6803F00C03002BE4
:102F04000BD0494B5B6803F00C03082B1CD1464BD8
:102F14005B6803F48033002B16D1434B1B6803F02A
:102F24000203002B05D07B681B69012B01D0012310
:102F3400C0E13D4B1B6823F0F8027B685B69DB0052
:102F4400394913430B603AE07B681B69002B20D09E
:102F5400364B01221A60FEF767FD386108E0FEF780
:102F640063FD02463B69D31A022B01D90323A1E175
:102F74002D4B1B6803F00203002BF0D02A4B1B6877
:102F840023F0F8027B685B69DB00274913430B607D
:102F940015E0264B00221A60FEF746FD386108E072
:102FA400FEF742FD02463B69D31A022B01D90323E3
:102FB40080E11D4B1B6803F00203002BF0D17B68FA
:102FC4001B6803F00803002B3AD07B689B69002B35
:102FD40019D0174B01221A60FEF726FD386108E06C
:102FE400FEF722FD02463B69D31A022B01D90323C3
:102FF40060E10D4B5B6A03F00203002BF0D001206B
:1030040000F006FB1CE00A4B00221A60FEF70CFDE0
:1030140038610FE0FEF708FD02463B69D31A022B24
:1030240008D9032346E100BF0010024000004242D9
:1030340080044242924B5B6A03F00203002BE9D105
:103044007B681B6803F00403002B00F0A6800023B8
:10305400FB758B4BDB6903F08053002B0DD1884B40
:10306400DB69874A43F08053D361854BDB6903F006
:103074008053BB60BB680123FB75824B1B6803F460
:103084008073002B18D17F4B1B687E4A43F48073F6
:103094001360FEF7C9FC386108E0FEF7C5FC024680
:1030A4003B69D31A642B01D9032303E1754B1B68D5
:1030B40003F48073002BF0D07B68DB68012B06D10E
:1030C4006F4B1B6A6E4A43F0010313622DE07B6869
:1030D400DB68002B0CD16A4B1B6A694A23F001039D
:1030E4001362674B1B6A664A23F0040313621CE0F5
:1030F4007B68DB68052B0CD1614B1B6A604A43F08B
:10310400040313625E4B1B6A5D4A43F001031362BE
:103114000BE05B4B1B6A5A4A23F001031362584BC2
:103124001B6A574A23F0040313627B68DB68002B95
:1031340015D0FEF779FC38610AE0FEF775FC02460B
:103144003B69D31A41F28832934201D90323B1E097
:103154004B4B1B6A03F00203002BEED014E0FEF786
:1031640063FC38610AE0FEF75FFC02463B69D31A50
:1031740041F28832934201D903239BE0404B1B6AFE
:1031840003F00203002BEED1FB7D012B05D13C4B58
:10319400DB693B4A23F08053D3617B68DB69002BF6
:1031A40000F08780364B5B6803F00C03082B61D07A
:1031B4007B68DB69022B46D1334B00221A60FEF791
:1031C40033FC386108E0FEF72FFC02463B69D31A52
:1031D400022B01D903236DE0294B1B6803F0007314
:1031E400002BF0D17B681B6AB3F5803F08D1244BD8
:1031F4005B6823F400327B689B68214913434B606E
:103204001F4B5B6823F474127B68196A7B685B6AE2
:103214000B431B4913434B601B4B01221A60FEF7FF
:1032240003FC386108E0FEF7FFFB02463B69D31A52
:10323400022B01D903233DE0114B1B6803F00073FB
:10324400002BF0D035E0104B00221A60FEF7ECFBA7
:10325400386108E0FEF7E8FB02463B69D31A022B0B
:1032640001D9032326E0064B1B6803F00073002BEF
:10327400F0D11EE07B68DB69012B07D1012319E043
:103284000010024000700040600042420B4B5B683B
:10329400FB60FB6803F480327B681B6A9A4206D1A8
:1032A400FB6803F470127B685B6A9A4201D00123C5
:1032B40000E0002318461837BD4680BD00100240C8
:1032C40080B584B000AF786039607B68002B01D191
:1032D4000123D0E06A4B1B6803F007033A689A4263
:1032E40010D9674B1B6823F0070265493B681343F9
:1032F4000B60634B1B6803F007033A689A4201D0E2
:103304000123B8E07B681B6803F00203002B20D084
:103314007B681B6803F00403002B05D0594B5B68E2
:10332400584A43F4E06353607B681B6803F0080366
:10333400002B05D0534B5B68524A43F460535360EF
:10334400504B5B6823F0F0027B689B684D49134344
:103354004B607B681B6803F00103002B40D07B6843
:103364005B68012B07D1474B1B6803F40033002B28
:1033740015D101237FE07B685B68022B07D1414BA9
:103384001B6803F00073002B09D1012373E03D4B4C
:103394001B6803F00203002B01D101236BE0394BBE
:1033A4005B6823F003027B685B68364913434B6018
:1033B400FEF73AFBF8600AE0FEF736FB0246FB68CC
:1033C400D31A41F28832934201D9032353E02D4B9F
:1033D4005B6803F00C027B685B689B009A42EBD14C
:1033E400274B1B6803F007033A689A4210D2244B18
:1033F4001B6823F0070222493B6813430B60204BF0
:103404001B6803F007033A689A4201D0012332E0B3
:103414007B681B6803F00403002B08D0194B5B681E
:1034240023F4E0627B68DB68164913434B607B68D6
:103434001B6803F00803002B09D0124B5B6823F4CC
:1034440060527B681B69DB000E4913434B6000F03C
:1034540059F802460B4B5B681B0903F00F030A493A
:10346400CB5C22FA03F3094A1360094B1B68184624
:10347400FEF798FA002318461037BD4680BD00BFFA
:103484000020024000100240AC5C00080000002054
:103494000400002080B58AB000AFF860B9607A609B
:1034A40007F1180300221A605A609A60DA60022356
:1034B400FB6103237B6200233B624FF48073BB6197
:1034C4000E4B9B690D4A43F0040393610B4B9B69BC
:1034D40003F004037B617B6907F11803194608486C
:1034E400FEF7B8FE054B5B6823F0E0620349BB6856
:1034F40013434B6000BF2837BD4680BD0010024017
:103504000008014080B487B000AF0023FB600023B3
:10351400BB6000237B6100237B6000233B611E4B67
:103524005B68FB60FB6803F00C03042B02D0082BE0
:1035340003D027E0194B3B6127E0FB689B0C03F0A9
:103544000F03174AD35C7B60FB6803F48033002BC2
:1035540010D0114B5B685B0C03F00103114AD35C80
:10356400BB607B680D4A03FB02F2BB68B2FBF3F35A
:103574007B6104E07B680C4A02FB03F37B617B699B
:103584003B6102E0054B3B6100BF3B6918461C37B9
:10359400BD4680BC704700BF0010024000127A0094
:1035A400C45C0008D45C000800093D0080B400AF8E
:1035B400024B1B681846BD4680BC704700000020C3
:1035C40080B500AFFFF7F2FF0246054B5B681B0AAC
:1035D40003F007030349CB5C22FA03F3184680BDCA
:1035E40000100240BC5C000880B500AFFFF7DEFFAE
:1035F4000246054B5B68DB0A03F007030349CB5C17
:1036040022FA03F3184680BD00100240BC5C000897
:1036140080B485B000AF78600A4B1B680A4AA2FBED
:1036240003235B0A7A6802FB03F3FB6000BFFB68B9
:103634005A1EFA60002BF9D100BF00BF1437BD46F3
:1036440080BC704700000020D34D621080B586B066
:1036540000AF786000233B610023FB607B681B683C
:1036640003F00103002B7DD00023FB754F4BDB6976
:1036740003F08053002B0DD14C4BDB694B4A43F0D4
:103684008053D361494BDB6903F08053BB60BB6853
:103694000123FB75464B1B6803F48073002B18D180
:1036A400434B1B68424A43F480731360FEF7BCF932
:1036B400386108E0FEF7B8F902463B69D31A642B77
:1036C40001D903236DE03A4B1B6803F48073002B8C
:1036D400F0D0364B1B6A03F44073FB60FB68002B8D
:1036E4002ED07B685B6803F44073FA689A4227D053
:1036F4002E4B1B6A23F44073FB602E4B01221A608D
:103704002C4B00221A60294AFB681362FB6803F001
:103714000103002B14D0FEF787F938610AE0FEF7A5
:1037240083F902463B69D31A41F28832934201D9A4
:10373400032336E01D4B1B6A03F00203002BEED07B
:103744001A4B1B6A23F440727B685B681749134366
:103754000B62FB7D012B05D1144BDB69134A23F06B
:103764008053D3617B681B6803F00203002B08D0ED
:103774000E4B5B6823F440427B689B680B49134300
:103784004B607B681B6803F01003002B08D0074BC9
:103794005B6823F480027B685B69044913434B60D4
:1037A400002318461837BD4680BD00BF00100240F4
:1037B400007000404004424280B588B000AF786099
:1037C40000237B610023FB6100233B610023FB603A
:1037D4000023BB617B68013B0F2B00F2AF8001A289
:1037E40052F823F0BF380008253900084139000891
:1037F400AF38000841390008413900084139000850
:10380400B738000841390008413900084139000837
:10381400413900084139000841390008413900089C
:10382400293800084A4B5B68FB60494B1B6803F06E
:103834008073002B00F08480FB689B0C03F00F0363
:10384400444AD35C3B61FB6803F48033002B15D0FE
:103854003F4B5B685B0C03F001033F4AD35C7B6125
:10386400FB6803F48033002B0DD03C4A7B69B2FB28
:10387400F3F23B6902FB03F3FB6104E03B69384A62
:1038840002FB03F3FB61324B5B6803F48003B3F583
:10389400800F02D1FB69BB6152E0FB695B00314AD6
:1038A400A2FB03235B08BB614AE0FFF72BFEB86170
:1038B40049E0FFF727FEB86145E0254B1B6AFB6032
:1038C400FB6803F44073B3F5807F08D1FB6803F011
:1038D4000203002B03D04FF40043BB611FE0FB68DD
:1038E40003F44073B3F5007F09D1194B5B6A03F00D
:1038F4000203002B03D049F64043BB610FE0FB6891
:1039040003F44073B3F5407F1CD1114B1B6803F4DF
:103914000033002B16D04FF22443BB6112E011E0B8
:10392400FFF762FE02460A4B5B689B0B03F003033E
:1039340001335B00B2FBF3F3BB6104E000BF02E0C0
:1039440000BF00E000BFBB6918462037BD4680BDFC
:1039540000100240D85C0008E85C000800127A00FD
:1039640000093D00ABAAAAAA80B584B000AF786074
:103974000023FB607B68002B01D101237AE07B6884
:103984005B7CDBB2002B05D17B6800221A7478685B
:10399400FDF790FC7B6802225A74786800F070F896
:1039A4000346002B04D07B6804225A74012361E08F
:1039B400786800F092F80346002B04D07B68042258
:1039C4005A74012356E07B681B685A687B681B683D
:1039D40022F007025A607B689B68002B05D0274BB6
:1039E4001B6B264A23F001031363244BDB6A23F485
:1039F40060727B689B6821491343CB627B685B6878
:103A0400B3F1FF3F03D07B685B68FB600EE00120ED
:103A1400FFF7D2FEF860FB68002B04D17B68042218
:103A24005A74012326E0FB68013BFB60FB681A0C17
:103A34007B681B6802F00F029A607B681B68FA6857
:103A440092B2DA60786800F070F80346002B04D074
:103A54007B6804225A7401230CE07B680022DA7329
:103A64007B6801225A737B6801229A737B68012266
:103A74005A74002318461037BD4680BD006C0040C0
:103A840080B584B000AF78600023FB607B68002BB6
:103A940001D101231DE07B681B685A687B681B68A1
:103AA40022F008025A60FDF7BFFFF86009E0FDF755
:103AB400BBFF0246FB68D31AB3F57A7F01D903230F
:103AC40007E07B681B685B6803F00803002BEED0FB
:103AD400002318461037BD4680BD80B584B000AFC2
:103AE40078600023FB60FDF79FFFF86009E0FDF7B5
:103AF4009BFF0246FB68D31AB3F57A7F01D90323EF
:103B04000FE07B681B685B6803F02003002BEED09A
:103B14007B681B685A687B681B6842F010025A6015
:103B2400002318461037BD4680BD80B584B000AF71
:103B340078600023FB607B681B685A687B681B689D
:103B440022F010025A60FDF76FFFF86009E0FDF7FC
:103B54006BFF0246FB68D31AB3F57A7F01D90323BE
:103B640007E07B681B685B6803F02003002BEED042
:103B7400002318461037BD4680BD80B582B000AF23
:103B840078607B68002B01D1012376E07B685B6A57
:103B9400002B08D17B685B68B3F5827F09D07B6812
:103BA4000022DA6105E07B6800221A617B6800224A
:103BB4005A617B6800229A627B6893F85130DBB2C9
:103BC400002B06D17B68002283F850207868FDF72B
:103BD40095FB7B68022283F851207B681B681A6876
:103BE4007B681B6822F040021A607B685B6803F400
:103BF40082727B689B6803F404431A437B68DB6826
:103C040003F400631A437B681B6903F002031A433D
:103C14007B685B6903F001031A437B689B6903F4C7
:103C240000731A437B68DB6903F038031A437B682B
:103C34001B6A03F0800342EA03017B689B6A03F476
:103C440000527B681B680A431A607B689B691A0CE4
:103C54007B681B6802F004025A607B681B68DA699F
:103C64007B681B6822F40062DA617B6800225A6573
:103C74007B68012283F85120002318460837BD468B
:103C840080BD80B582B000AF78607B68002B01D125
:103C9400012341E07B6893F83D30DBB2002B06D171
:103CA4007B68002283F83C207868FDF773FB7B680F
:103CB400022283F83D207B681A687B680433194626
:103CC400104600F0E9FC7B68012283F846207B68FB
:103CD400012283F83E207B68012283F83F207B6821
:103CE400012283F840207B68012283F841207B680D
:103CF400012283F842207B68012283F843207B68F9
:103D0400012283F844207B68012283F845207B68E4
:103D1400012283F83D20002318460837BD4680BDA4
:103D240080B485B000AF78607B6893F83D30DBB237
:103D3400012B01D0012344E07B68022283F83D205B
:103D44007B681B68DA687B681B6842F00102DA60F2
:103D54007B681B681D4A934218D07B681B681C4A09
:103D6400934213D07B681B68B3F1804F0ED07B68FD
:103D74001B68184A934209D07B681B68164A934211
:103D840004D07B681B68154A934211D17B681B6879
:103D94009B6803F00703FB60FB68062B10D07B686D
:103DA4001B681A687B681B6842F001021A6007E00E
:103DB4007B681B681A687B681B6842F001021A6002
:103DC400002318461437BD4680BC7047002C0140C0
:103DD400003401400004004000080040000C004092
:103DE40080B582B000AF78607B68002B01D10123DD
:103DF40041E07B6893F83D30DBB2002B06D17B6851
:103E0400002283F83C20786800F039F87B680222AD
:103E140083F83D207B681A687B6804331946104692
:103E240000F03AFC7B68012283F846207B6801227B
:103E340083F83E207B68012283F83F207B680122BF
:103E440083F840207B68012283F841207B680122AB
:103E540083F842207B68012283F843207B68012297
:103E640083F844207B68012283F845207B68012283
:103E740083F83D20002318460837BD4680BD80B432
:103E840083B000AF786000BF0C37BD4680BC70477C
:103E940080B582B000AF78607B68002B01D101232C
:103EA40041E07B6893F83D30DBB2002B06D17B68A0
:103EB400002283F83C207868FDF7A4FA7B6802228C
:103EC40083F83D207B681A687B68043319461046E2
:103ED40000F0E2FB7B68012283F846207B68012224
:103EE40083F83E207B68012283F83F207B6801220F
:103EF40083F840207B68012283F841207B680122FB
:103F040083F842207B68012283F843207B680122E6
:103F140083F844207B68012283F845207B680122D2
:103F240083F83D20002318460837BD4680BD0000B5
:103F340080B584B000AF786039603B68002B09D14C
:103F44007B6893F83E30DBB2012B14BF01230023BE
:103F5400DBB222E03B68042B09D17B6893F83F3045
:103F6400DBB2012B14BF01230023DBB215E03B6855
:103F7400082B09D17B6893F84030DBB2012B14BFC6
:103F840001230023DBB208E07B6893F84130DBB205
:103F9400012B14BF01230023DBB2002B01D001232A
:103FA40072E03B68002B04D17B68022283F83E2038
:103FB40013E03B68042B04D17B68022283F83F2082
:103FC4000BE03B68082B04D17B68022283F8402075
:103FD40003E07B68022283F841207B681B6801228E
:103FE4003968184600F020FE7B681B68284A934213
:103FF40004D07B681B68274A934201D1012300E067
:104004000023002B07D07B681B685A6C7B681B68F5
:1040140042F400425A647B681B681D4A934218D0DC
:104024007B681B681B4A934213D07B681B68B3F1FF
:10403400804F0ED07B681B68174A934209D07B6877
:104044001B68164A934204D07B681B68144A934247
:1040540011D17B681B689B6803F00703FB60FB6856
:10406400062B10D07B681B681A687B681B6842F0BB
:1040740001021A6007E07B681B681A687B681B688A
:1040840042F001021A60002318461037BD4680BD75
:10409400002C0140003401400004004000080040AE
:1040A400000C004080B584B000AF78607B681B686A
:1040B400DB68FB607B681B681B69BB60BB6803F043
:1040C4000203002B20D0FB6803F00203002B1BD05B
:1040D4007B681B686FF002021A617B6801221A7701
:1040E4007B681B689B6903F00303002B03D078688B
:1040F40000F0B6FA05E0786800F0A9FA786800F0F4
:10410400B8FA7B6800221A77BB6803F00403002B1B
:1041140020D0FB6803F00403002B1BD07B681B68D2
:104124006FF004021A617B6802221A777B681B68AD
:104134009B6903F44073002B03D0786800F090FA75
:1041440005E0786800F083FA786800F092FA7B68FA
:1041540000221A77BB6803F00803002B20D0FB6809
:1041640003F00803002B1BD07B681B686FF0080268
:104174001A617B6804221A777B681B68DB6903F089
:104184000303002B03D0786800F06AFA05E078682E
:1041940000F05DFA786800F06CFA7B6800221A7708
:1041A400BB6803F01003002B20D0FB6803F010035E
:1041B400002B1BD07B681B686FF010021A617B68B0
:1041C40008221A777B681B68DB6903F44073002BB1
:1041D40003D0786800F044FA05E0786800F037FA14
:1041E400786800F046FA7B6800221A77BB6803F00F
:1041F4000103002B0CD0FB6803F00103002B07D054
:104204007B681B686FF001021A617868FCF714FD83
:10421400BB6803F08003002B0CD0FB6803F0800321
:10422400002B07D07B681B686FF080021A617868E6
:1042340000F0E4FDBB6803F04003002B0CD0FB68E6
:1042440003F04003002B07D07B681B686FF040022B
:104254001A61786800F016FABB6803F02003002B9B
:104264000CD0FB6803F02003002B07D07B681B688D
:104274006FF020021A61786800F0B7FD00BF1037B4
:10428400BD4680BD80B586B000AFF860B9607A6085
:104294000023FB75FB6893F83C30012B01D102230A
:1042A40048E0FB68012283F83C207B680C2B39D85A
:1042B40001A252F823F000BFF1420008294300088C
:1042C4002943000829430008FF4200082943000845
:1042D40029430008294300080D4300082943000826
:1042E40029430008294300081B430008FB681B6896
:1042F400B968184600F056FA17E0FB681B68B968FD
:10430400184600F0BFFA10E0FB681B68B96818464D
:1043140000F02CFB09E0FB681B68B968184600F044
:1043240099FB02E00123FB7500BFFB68002283F8C0
:104334003C20FB7D18461837BD4680BD80B586B04D
:1043440000AFF860B9607A600023FB75FB6893F8EE
:104354003C30012B01D10223AEE0FB68012283F83B
:104364003C207B680C2B00F29F8001A252F823F0C2
:10437400A9430008AD440008AD440008AD4400085A
:10438400E9430008AD440008AD440008AD4400080A
:104394002B440008AD440008AD440008AD440008B7
:1043A4006B440008FB681B68B968184600F0FAF90A
:1043B400FB681B689A69FB681B6842F008029A61F3
:1043C400FB681B689A69FB681B6822F004029A6107
:1043D400FB681B689969BB681A69FB681B680A4318
:1043E4009A6164E0FB681B68B968184600F04AFAF1
:1043F400FB681B689A69FB681B6842F400629A6157
:10440400FB681B689A69FB681B6822F480629A61E6
:10441400FB681B689969BB681B691A02FB681B6807
:104424000A439A6143E0FB681B68B968184600F0C8
:104434009DFAFB681B68DA69FB681B6842F0080296
:10444400DA61FB681B68DA69FB681B6822F0040206
:10445400DA61FB681B68D969BB681A69FB681B6869
:104464000A43DA6123E0FB681B68B968184600F068
:10447400F1FAFB681B68DA69FB681B6842F40062A6
:10448400DA61FB681B68DA69FB681B6822F48062E6
:10449400DA61FB681B68D969BB681B691A02FB688F
:1044A4001B680A43DA6102E00123FB7500BFFB6865
:1044B400002283F83C20FB7D18461837BD4680BD9A
:1044C40080B584B000AF786039600023FB737B68EB
:1044D40093F83C30012B01D10223B4E07B68012224
:1044E40083F83C207B68022283F83D207B681B68AC
:1044F4009B68BB60BB6823F07703BB60BB6823F495
:104504007F43BB607B681B68BA689A603B681B6822
:10451400B3F5005F3ED0B3F5005F00F28780B3F5DA
:10452400805F00F08680B3F5805F7FD8702B1AD04F
:10453400702B7BD8602B50D0602B77D8502B3CD07D
:10454400502B73D8402B58D0402B6FD8302B64D0CD
:10455400302B6BD8202B60D0202B67D8002B5CD05D
:10456400102B5AD062E07B6818683B6899683B68F6
:104574005A683B68DB6800F038FB7B681B689B6803
:10458400BB60BB6843F07703BB607B681B68BA6899
:104594009A604FE07B6818683B6899683B685A6882
:1045A4003B68DB6800F021FB7B681B689A687B68CA
:1045B4001B6842F480429A603CE07B6818683B6860
:1045C40059683B68DB681A4600F098FA7B681B68F8
:1045D4005021184600F0EFFA2CE07B6818683B681D
:1045E40059683B68DB681A4600F0B6FA7B681B68BA
:1045F4006021184600F0DFFA1CE07B6818683B680D
:1046040059683B68DB681A4600F078FA7B681B68D7
:104614004021184600F0CFFA0CE07B681A683B682A
:104624001B681946104600F0C6FA03E00123FB7329
:1046340000E000BF7B68012283F83D207B680022F4
:1046440083F83C20FB7B18461037BD4680BD80B400
:1046540083B000AF786000BF0C37BD4680BC7047A4
:1046640080B483B000AF786000BF0C37BD4680BC17
:10467400704780B483B000AF786000BF0C37BD468C
:1046840080BC704780B483B000AF786000BF0C3743
:10469400BD4680BC7047000080B485B000AF786030
:1046A40039607B681B68FB607B68394A934213D08E
:1046B4007B68384A93420FD07B68B3F1804F0BD0AC
:1046C4007B68354A934207D07B68344A934203D0CF
:1046D4007B68334A934208D1FB6823F07003FB6084
:1046E4003B685B68FA681343FB607B68284A934223
:1046F40013D07B68274A93420FD07B68B3F1804F75
:104704000BD07B68244A934207D07B68234A9342A8
:1047140003D07B68224A934208D1FB6823F4407398
:10472400FB603B68DB68FA681343FB60FB6823F0BB
:1047340080023B685B691343FB607B68FA681A601C
:104744003B689A687B68DA623B681A687B689A629D
:104754007B680F4A934203D07B680E4A934203D18D
:104764003B681A697B681A637B6801225A617B681B
:104774001B6903F00103002B05D07B681B6923F040
:1047840001027B681A6100BF1437BD4680BC7047C4
:10479400002C0140003401400004004000080040A7
:1047A400000C004080B487B000AF786039607B684B
:1047B4001B6A7B617B681B6A23F001027B681A62B7
:1047C4007B685B683B617B689B69FB60FB6823F0EB
:1047D4007003FB60FB6823F00303FB603B681B680A
:1047E400FA681343FB607B6923F002037B613B6837
:1047F4009B687A6913437B617B68204A934203D0A8
:104804007B681F4A93420CD17B6923F008037B61C8
:104814003B68DB687A6913437B617B6923F004039B
:104824007B617B68154A934203D07B68144A9342A8
:1048340011D13B6923F480733B613B6923F400731A
:104844003B613B685B693A6913433B613B689B6925
:104854003A6913433B617B683A695A607B68FA683A
:104864009A613B685A687B685A637B687A691A6202
:1048740000BF1C37BD4680BC704700BF002C014000
:104884000034014080B487B000AF786039607B6841
:104894001B6A7B617B681B6A23F010027B681A62C7
:1048A4007B685B683B617B689B69FB60FB6823F406
:1048B400E043FB60FB6823F44073FB603B681B68C8
:1048C4001B02FA681343FB607B6923F020037B61BE
:1048D4003B689B681B017A6913437B617B68214AAF
:1048E400934203D07B68204A93420DD17B6923F025
:1048F40080037B613B68DB681B017A6913437B613E
:104904007B6923F040037B617B68164A934203D0A2
:104914007B68154A934213D13B6923F480633B615E
:104924003B6923F400633B613B685B699B003A6924
:1049340013433B613B689B699B003A6913433B61AA
:104944007B683A695A607B68FA689A613B685A687E
:104954007B689A637B687A691A6200BF1C37BD461C
:1049640080BC7047002C01400034014080B487B003
:1049740000AF786039607B681B6A7B617B681B6A67
:1049840023F480727B681A627B685B683B617B6896
:10499400DB69FB60FB6823F07003FB60FB6823F0BA
:1049A4000303FB603B681B68FA681343FB607B6985
:1049B40023F400737B613B689B681B027A69134391
:1049C4007B617B68214A934203D07B68204A9342EF
:1049D4000DD17B6923F400637B613B68DB681B02B8
:1049E4007A6913437B617B6923F480637B617B6811
:1049F400164A934203D07B68154A934213D13B690C
:104A040023F480533B613B6923F400533B613B68CF
:104A14005B691B013A6913433B613B689B691B015A
:104A24003A6913433B617B683A695A607B68FA6868
:104A3400DA613B685A687B68DA637B687A691A6270
:104A440000BF1C37BD4680BC704700BF002C01402E
:104A54000034014080B487B000AF786039607B686F
:104A64001B6A3B617B681B6A23F480527B681A6271
:104A74007B685B687B617B68DB69FB60FB6823F4B4
:104A8400E043FB60FB6823F44073FB603B681B68F6
:104A94001B02FA681343FB603B6923F400533B6138
:104AA4003B689B681B033A6913433B617B68114A6B
:104AB400934203D07B68104A934209D17B6923F463
:104AC40080437B613B685B699B017A6913437B612B
:104AD4007B687A695A607B68FA68DA613B685A686D
:104AE4007B681A647B683A691A6200BF1C37BD464A
:104AF40080BC7047002C01400034014080B487B072
:104B040000AFF860B9607A60FB681B6A7B61FB6880
:104B14001B6A23F00102FB681A62FB689B693B6114
:104B24003B6923F0F0033B617B681B013A69134343
:104B34003B617B6923F00A037B617A69BB68134399
:104B44007B61FB683A699A61FB687A691A6200BF03
:104B54001C37BD4680BC704780B487B000AFF86096
:104B6400B9607A60FB681B6A7B61FB681B6A23F08F
:104B74001002FB681A62FB689B693B613B6923F482
:104B840070433B617B681B033A6913433B617B6958
:104B940023F0A0037B61BB681B017A6913437B612B
:104BA400FB683A699A61FB687A691A6200BF1C372C
:104BB400BD4680BC704780B485B000AF7860396072
:104BC4007B689B68FB60FB6823F07003FB603A68BA
:104BD400FB68134343F00703FB607B68FA689A6041
:104BE40000BF1437BD4680BC704780B487B000AFA7
:104BF400F860B9607A603B60FB689B687B617B69A5
:104C040023F47F437B613B681A027B681A43BB68C9
:104C140013437A6913437B61FB687A699A6000BF26
:104C24001C37BD4680BC704780B487B000AFF860C5
:104C3400B9607A60BB6803F01F03012202FA03F330
:104C44007B61FB681A6A7B69DB431A40FB681A6262
:104C5400FB681A6ABB6803F01F03796801FA03F35F
:104C64001A43FB681A6200BF1C37BD4680BC7047FC
:104C740080B485B000AF786039607B6893F83C30CD
:104C8400012B01D1022350E07B68012283F83C20F0
:104C94007B68022283F83D207B681B685B68FB60AD
:104CA4007B681B689B68BB60FB6823F07003FB6038
:104CB4003B681B68FA681343FB607B681B68FA68EF
:104CC4005A607B681B681B4A934218D07B681B6838
:104CD400194A934213D07B681B68B3F1804F0ED0FE
:104CE4007B681B68154A934209D07B681B68144A89
:104CF400934204D07B681B68124A93420CD1BB6870
:104D040023F08003BB603B685B68BA681343BB60F5
:104D14007B681B68BA689A607B68012283F83D202F
:104D24007B68002283F83C20002318461437BD46D4
:104D340080BC7047002C0140003401400004004056
:104D440000080040000C004080B485B000AF7860DB
:104D540039600023FB607B6893F83C30012B01D160
:104D640002233DE07B68012283F83C20FB6823F0AA
:104D7400FF023B68DB681343FB60FB6823F440726B
:104D84003B689B681343FB60FB6823F480623B68C9
:104D94005B681343FB60FB6823F400623B681B6899
:104DA4001343FB60FB6823F480523B681B69134385
:104DB400FB60FB6823F400523B685B691343FB60B0
:104DC400FB6823F480423B68DB691343FB607B6828
:104DD4001B68FA685A647B68002283F83C2000232D
:104DE40018461437BD4680BC704780B483B000AF0A
:104DF400786000BF0C37BD4680BC704780B483B078
:104E040000AF786000BF0C37BD4680BC704780B5EA
:104E140082B000AF78607B68002B01D1012342E0AF
:104E24007B6893F84130DBB2002B06D17B6800220B
:104E340083F840207868FCF789FB7B68242283F898
:104E440041207B681B68DA687B681B6822F4005287
:104E5400DA60786800F072F97B681B681A697B680D
:104E64001B6822F490421A617B681B685A697B684C
:104E74001B6822F02A025A617B681B68DA687B6827
:104E84001B6842F40052DA607B6800225A647B6833
:104E9400202283F841207B68202283F842207B680B
:104EA40000225A63002318460837BD4680BD80B5EA
:104EB4008AB002AFF860B9603B601346FB80002300
:104EC4007B61FB6893F84130DBB2202B75D1BB6862
:104ED400002B02D0FB88002B01D101236EE0FB687C
:104EE40000225A64FB68212283F84120FCF79CFDD0
:104EF4007861FB68FA889A84FB68FA88DA84FB682C
:104F04009B68B3F5805F08D1FB681B69002B04D153
:104F14000023FB61BB68BB6103E0BB68FB6100234A
:104F2400BB612EE03B6800937B6900228021F86816
:104F340000F048F80346002B05D0FB68202283F8D4
:104F4400412003233AE0FB69002B0BD1BB691B888A
:104F54001A46FB681B68C2F308025A60BB69023335
:104F6400BB6107E0FB691A78FB681B685A60FB6940
:104F74000133FB61FB68DB8C9BB2013B9AB2FB689B
:104F8400DA84FB68DB8C9BB2002BCBD13B680093AB
:104F94007B6900224021F86800F014F80346002BD6
:104FA40005D0FB68202283F84120032306E0FB6838
:104FB400202283F84120002300E0022318462037F2
:104FC400BD4680BD80B586B000AFF860B9603B6077
:104FD4001346FB713BE03B6AB3F1FF3F37D0FCF76C
:104FE40023FD02463B68D31A3A6A9A4202D33B6ACB
:104FF400002B01D103233AE0FB681B68DB6803F054
:105004000403002B23D0BB68802B20D0BB68402B2B
:105014001DD0FB681B681B6803F00803082B16D11E
:1050240000237B61FB681B681B687B61FB681B6852
:105034005B687B617B69F86800F01DF8FB680822F7
:105044005A64FB68002283F8402001230FE0FB68C8
:105054001B681A68BB681340BA689A420CBF0123E4
:105064000023DBB21A46FB799A42B4D000231846D7
:105074001837BD4680BD80B495B000AF78607B68BA
:105084001B680C337B637B6B53E8003F3B633B6BD8
:1050940023F49073FB647B681B680C33FA6C3A64EA
:1050A400FB63F96B3A6C41E80023BB63BB6B002BD9
:1050B400E5D17B681B6814333B623B6A53E8003FCD
:1050C400FB61FB6923F00103BB647B681B68143339
:1050D400BA6CFA62BB62B96AFA6A41E800237B627D
:1050E4007B6A002BE5D17B681B6B012B19D17B6894
:1050F4001B680C33FB60FB6853E8003FBB60BB6874
:1051040023F010037B647B681B680C337A6CBA61F0
:105114007B617969BA6941E800233B613B69002BF3
:10512400E5D17B68202283F842207B6800221A6341
:1051340000BF5437BD4680BC7047000080B584B0C2
:1051440000AF78607B681B681B6923F440517B685F
:10515400DA687B681B680A431A617B689A687B6813
:105164001B691A437B685B691343BB607B681B68DC
:10517400DB6823F4B05323F00C037A681268B9682F
:105184000B43D3607B681B685B6923F440717B68C5
:105194009A697B681B680A435A617B681B682C4ABE
:1051A400934203D1FEF720FAF86002E0FEF708FA12
:1051B400F860FA6813469B0013449A001A447B680B
:1051C4005B689B00B2FBF3F3224AA2FB03235B0957
:1051D4001901FA6813469B0013449A001A447B6829
:1051E4005B689B00B2FBF3F21A4BA3FB02035B095F
:1051F400642000FB03F3D31A1B013233154AA2FBCC
:1052040003235B0903F0F0031944FA6813469B0077
:1052140013449A001A447B685B689B00B2FBF3F268
:105224000C4BA3FB02035B09642000FB03F3D31ABA
:105234001B013233074AA2FB03235B0903F00F026D
:105244007B681B680A449A6000BF1037BD4680BD66
:10525400003801401F85EB5180B485B000AFF86081
:10526400384680E80E00002318461437BD4680BC3B
:10527400704780B485B000AF78604FF43F43FB6063
:105284007B68B3F840309AB2FB689BB2DB439BB2B5
:1052940013409AB27B68A3F84020002318461437C1
:1052A400BD4680BC704780B483B000AF78600B46C5
:1052B400FB70002318460C37BD4680BC704780B491
:1052C40085B000AFF860384680E80E00FB68012224
:1052D400A3F84020FB680022A3F84020FB680022CA
:1052E400A3F84420FB680022A3F8502000231846AA
:1052F4001437BD4680BC704780B483B000AF78607B
:10530400002318460C37BD4680BC70470EB46FF0BE
:10531400004100B59CB01DAB02900690079104912A
:105324000848094953F8042B0591006802A9019320
:1053340000F09CF90022029B1A701CB05DF804EB8B
:1053440003B07047580000200802FFFF03460244E0
:10535400934200D1704703F8011BF9E7014B186829
:10536400704700BF5800002070B500260C4D0D4C4E
:10537400641BA410A64209D100F07AFC00260A4D51
:105384000A4C641BA410A64205D170BD55F8043B19
:1053940098470136EEE755F8043B98470136F2E7A3
:1053A400205D0008205D0008205D0008245D0008E1
:1053B400704770470A44914200F1FF3300D17047AF
:1053C40010B511F8014B914203F8014FF9D110BD0A
:1053D40038B50546002940D051F8043C0C1F002B79
:1053E400B8BFE41800F0DCF81C4A136833B96360F2
:1053F40014602846BDE8384000F0D8B8A34208D964
:10540400206821188B4201BF19685B680918216064
:10541400EDE71A465B680BB1A342FAD9116850183C
:10542400A0420BD120680144501883421160E0D19E
:1054340018685B68084410605360DAE702D90C23EB
:105444002B60D6E7206821188B4201BF19685B687E
:105454000918216063605460CBE738BD84080020DC
:1054640070B50E4E0C463168054611B900F0AAFB22
:1054740030602146284600F0A5FB431C0AD0C41C1A
:1054840024F00304A04207D0211A284600F09AFB16
:10549400013001D14FF0FF34204670BD8808002050
:1054A4002DE9F843CD1C25F0030508350C2D38BF34
:1054B4000C25002D074601DBA94205D90C23002643
:1054C4003B603046BDE8F883DFF8D08000F068F830
:1054D400D8F800301C465CBB29463846FFF7C0FFAD
:1054E400431C044655D1D8F800402646002E45D129
:1054F400002C48D023683146384604EB030900F0F9
:1055040061FB81453FD1216838466D1A2946FFF772
:10551400A7FF013037D023682B442360D8F800302C
:10552400002B38D05A68A2422BD100225A600FE0D7
:105534002268521B1FD40B2A17D96119A342256074
:1055440018BF5960636808BFC8F8001062514B6007
:10555400384604F10B0600F029F826F00706231D4F
:10556400F21AAED09B1BA350ABE7A3426268DDD115
:10557400C8F80020ECE723466468ACE73446766854
:10558400B4E71346CCE70C2338463B6000F00EF832
:1055940097E72560DCE75B60FFDE00BF840800203E
:1055A4000148FFF705BF00BF800800200148FFF74E
:1055B40000BF00BF800800202DE9F0471F468E6819
:1055C4008246BE420C4690460B682CD88A8912F457
:1055D400906F26D06569096905EB4505A3EB0109C0
:1055E40005EBD5757B1C4B446D109D4238BF1D46A1
:1055F400530527D52946FFF753FF064660B34A46AD
:105604002169FFF7D7FEA38923F4906343F0800355
:10561400A38126614E4426603E466561A5EB0905DB
:10562400A560BE4200D93E4632464146206800F09D
:10563400AFFA0020A3689B1BA36023683344236054
:10564400BDE8F0872A4600F0DBFA06460028E0D1E0
:1056540050462169FFF7BCFE0C23CAF80030A38929
:105664004FF0FF3043F04003A381E9E72DE9F04F09
:1056740098468B8907461B060D4614469DB00ED5E9
:105684000B6963B94021FFF70BFF2860286120B93B
:105694000C233B604FF0FF30D0E040236B610023CC
:1056A400099320238DF8293030234FF00109CDF8D8
:1056B4000C80DFF8A0818DF82A3023469A4613F82F
:1056C400012B0AB1252AF9D1BAEB040B0BD05B46A6
:1056D400224629463846FFF76FFF013000F0A980C3
:1056E400099A5A4409929AF80030002B00F0A180DC
:1056F40000234FF0FF32CDE905230AF1010A049398
:1057040007938DF853301A935446052214F8011B5D
:10571400504800F067FA049AD8B9D00644BF202351
:105724008DF85330110744BF2B238DF853309AF86A
:1057340000302A2B15D0544600204FF00A0C079A4B
:10574400214611F8013B303B092B4DD9B0B10792EA
:1057540014E0A0EB080309FA03F31343A2460493ED
:10576400D2E7039B191D1B680391002BBBBF5B424F
:1057740042F0020207930793B8BF049223782E2BBA
:105784000CD163782A2B34D1039B02341A1D1B6875
:105794000392002BB8BF4FF0FF330593DFF8B8A096
:1057A40003225046217800F01DFA38B14022049BB0
:1057B400A0EB0A00824013430134049314F8011B44
:1057C400062226488DF8281000F00CFA002838D05C
:1057D400234B1BBB039B073323F0070308330393BB
:1057E400099B3344099368E70C4601200CFB023201
:1057F400A6E700234FF00A0C19460134059320460E
:1058040010F8012B303A092A03D9002BC6D0059190
:10581400C4E7044601230CFB0121F0E703AB00932A
:105824002A4638460F4B04A9AFF30080421C0646B3
:10583400D6D1AB895B063FF52DAF09981DB0BDE805
:10584400F08F03AB00932A463846064B04A900F0B8
:105854007DF8EBE7EA5C0008F05C0008F45C000803
:1058640000000000BD5500082DE9F0471646994692
:105874008A680B6907469342B8BF1346336091F8B0
:1058840043200C46DDF820800AB1013333602368DD
:10589400990642BF336802333360256815F0060564
:1058A40006D104F1190AE36832689B1AAB422BDC77
:1058B40094F84320131E226818BF0123920630D4A3
:1058C4004946384604F14302C047013023D02368D7
:1058D400226903F00603042B14BF002533684FF03C
:1058E400000608BFE56804F11A0408BFED1A54F86D
:1058F400123C08BF25EAE5759342C4BF9B1AED1814
:10590400B5421AD1002008E00123524649463846E0
:10591400C047013003D14FF0FF30BDE8F0870135B7
:10592400C1E73020E11881F843005A1C94F845106F
:105934002244023382F84310C2E701232246494637
:105944003846C0470130E6D00136D9E72DE9FF4794
:105954000F7E9146782F80460C469A460C9D01F1A5
:10596400430207D8622F0AD8002F00F0D580582FA1
:1059740000F0C18004F1420584F842703AE0A7F1D6
:105984006303152BF6D801A151F823F0E959000857
:10599400FD59000879590008795900087959000817
:1059A40079590008FD590008795900087959000807
:1059B4007959000879590008035B0008295A00083E
:1059C400BD5A00087959000879590008255B000878
:1059D40079590008295A00087959000879590008AA
:1059E400C55A00082B681A1D1B682A6004F1420579
:1059F40084F842300123A0E020682B68070603F1F5
:105A04000401296001D51E6803E04606FBD5B3F9FD
:105A14000060002E03DA2D23764284F843300A23F3
:105A2400594812E02B682068191D2960050601D524
:105A34001E6802E04106FBD51E886F2F0CBF0823A9
:105A44000A235148002184F843106568002DA8BF3B
:105A54002168A560A4BF21F0040121600EB9002DC6
:105A64004BD01546B6FBF3F103FB1167C75D05F890
:105A7400017D3746BB420E46F4D9082B0BD123686F
:105A8400DE0708D5236961689942DEBF302305F833
:105A9400013C05F1FF35521B22614B46214640462D
:105AA400CDF800A003AAFFF7DFFE01304AD14FF082
:105AB400FF3004B0BDE8F087236843F0200323607F
:105AC4007827324884F84570236829681F0651F8FE
